{
  "_format": "hh-sol-artifact-1",
  "contractName": "Rzuki",
  "sourceName": "contracts/Rzuki.sol",
  "abi": [
    {
      "inputs": [
        {
          "internalType": "string",
          "name": "initBaseURI",
          "type": "string"
        }
      ],
      "stateMutability": "nonpayable",
      "type": "constructor"
    },
    {
      "anonymous": false,
      "inputs": [
        {
          "indexed": true,
          "internalType": "address",
          "name": "owner",
          "type": "address"
        },
        {
          "indexed": true,
          "internalType": "address",
          "name": "approved",
          "type": "address"
        },
        {
          "indexed": true,
          "internalType": "uint256",
          "name": "tokenId",
          "type": "uint256"
        }
      ],
      "name": "Approval",
      "type": "event"
    },
    {
      "anonymous": false,
      "inputs": [
        {
          "indexed": true,
          "internalType": "address",
          "name": "owner",
          "type": "address"
        },
        {
          "indexed": true,
          "internalType": "address",
          "name": "operator",
          "type": "address"
        },
        {
          "indexed": false,
          "internalType": "bool",
          "name": "approved",
          "type": "bool"
        }
      ],
      "name": "ApprovalForAll",
      "type": "event"
    },
    {
      "anonymous": false,
      "inputs": [
        {
          "indexed": true,
          "internalType": "address",
          "name": "previousOwner",
          "type": "address"
        },
        {
          "indexed": true,
          "internalType": "address",
          "name": "newOwner",
          "type": "address"
        }
      ],
      "name": "OwnershipTransferred",
      "type": "event"
    },
    {
      "anonymous": false,
      "inputs": [
        {
          "indexed": true,
          "internalType": "address",
          "name": "from",
          "type": "address"
        },
        {
          "indexed": true,
          "internalType": "address",
          "name": "to",
          "type": "address"
        },
        {
          "indexed": true,
          "internalType": "uint256",
          "name": "tokenId",
          "type": "uint256"
        }
      ],
      "name": "Transfer",
      "type": "event"
    },
    {
      "inputs": [
        {
          "internalType": "uint256",
          "name": "quantity",
          "type": "uint256"
        },
        {
          "internalType": "address",
          "name": "to",
          "type": "address"
        }
      ],
      "name": "airdrop",
      "outputs": [],
      "stateMutability": "nonpayable",
      "type": "function"
    },
    {
      "inputs": [],
      "name": "amountForPublicSale",
      "outputs": [
        {
          "internalType": "uint256",
          "name": "",
          "type": "uint256"
        }
      ],
      "stateMutability": "view",
      "type": "function"
    },
    {
      "inputs": [
        {
          "internalType": "address",
          "name": "to",
          "type": "address"
        },
        {
          "internalType": "uint256",
          "name": "tokenId",
          "type": "uint256"
        }
      ],
      "name": "approve",
      "outputs": [],
      "stateMutability": "nonpayable",
      "type": "function"
    },
    {
      "inputs": [
        {
          "internalType": "address",
          "name": "owner",
          "type": "address"
        }
      ],
      "name": "balanceOf",
      "outputs": [
        {
          "internalType": "uint256",
          "name": "",
          "type": "uint256"
        }
      ],
      "stateMutability": "view",
      "type": "function"
    },
    {
      "inputs": [],
      "name": "baseTokenURI",
      "outputs": [
        {
          "internalType": "string",
          "name": "",
          "type": "string"
        }
      ],
      "stateMutability": "view",
      "type": "function"
    },
    {
      "inputs": [
        {
          "internalType": "address",
          "name": "",
          "type": "address"
        }
      ],
      "name": "freeAppeared",
      "outputs": [
        {
          "internalType": "bool",
          "name": "",
          "type": "bool"
        }
      ],
      "stateMutability": "view",
      "type": "function"
    },
    {
      "inputs": [
        {
          "internalType": "uint256",
          "name": "quantity",
          "type": "uint256"
        }
      ],
      "name": "freeMint",
      "outputs": [],
      "stateMutability": "payable",
      "type": "function"
    },
    {
      "inputs": [],
      "name": "freeMintAmount",
      "outputs": [
        {
          "internalType": "uint256",
          "name": "",
          "type": "uint256"
        }
      ],
      "stateMutability": "view",
      "type": "function"
    },
    {
      "inputs": [],
      "name": "freeMintStatus",
      "outputs": [
        {
          "internalType": "bool",
          "name": "",
          "type": "bool"
        }
      ],
      "stateMutability": "view",
      "type": "function"
    },
    {
      "inputs": [
        {
          "internalType": "address",
          "name": "",
          "type": "address"
        }
      ],
      "name": "freeStock",
      "outputs": [
        {
          "internalType": "uint256",
          "name": "",
          "type": "uint256"
        }
      ],
      "stateMutability": "view",
      "type": "function"
    },
    {
      "inputs": [
        {
          "internalType": "uint256",
          "name": "tokenId",
          "type": "uint256"
        }
      ],
      "name": "getApproved",
      "outputs": [
        {
          "internalType": "address",
          "name": "",
          "type": "address"
        }
      ],
      "stateMutability": "view",
      "type": "function"
    },
    {
      "inputs": [
        {
          "internalType": "uint256",
          "name": "tokenId",
          "type": "uint256"
        }
      ],
      "name": "getOwnershipData",
      "outputs": [
        {
          "components": [
            {
              "internalType": "address",
              "name": "addr",
              "type": "address"
            },
            {
              "internalType": "uint64",
              "name": "startTimestamp",
              "type": "uint64"
            }
          ],
          "internalType": "struct ERC721A.TokenOwnership",
          "name": "",
          "type": "tuple"
        }
      ],
      "stateMutability": "view",
      "type": "function"
    },
    {
      "inputs": [
        {
          "internalType": "address",
          "name": "owner",
          "type": "address"
        },
        {
          "internalType": "address",
          "name": "operator",
          "type": "address"
        }
      ],
      "name": "isApprovedForAll",
      "outputs": [
        {
          "internalType": "bool",
          "name": "",
          "type": "bool"
        }
      ],
      "stateMutability": "view",
      "type": "function"
    },
    {
      "inputs": [],
      "name": "maxFreeMint",
      "outputs": [
        {
          "internalType": "uint256",
          "name": "",
          "type": "uint256"
        }
      ],
      "stateMutability": "view",
      "type": "function"
    },
    {
      "inputs": [],
      "name": "name",
      "outputs": [
        {
          "internalType": "string",
          "name": "",
          "type": "string"
        }
      ],
      "stateMutability": "view",
      "type": "function"
    },
    {
      "inputs": [],
      "name": "nextOwnerToExplicitlySet",
      "outputs": [
        {
          "internalType": "uint256",
          "name": "",
          "type": "uint256"
        }
      ],
      "stateMutability": "view",
      "type": "function"
    },
    {
      "inputs": [
        {
          "internalType": "address",
          "name": "owner",
          "type": "address"
        }
      ],
      "name": "numberMinted",
      "outputs": [
        {
          "internalType": "uint256",
          "name": "",
          "type": "uint256"
        }
      ],
      "stateMutability": "view",
      "type": "function"
    },
    {
      "inputs": [],
      "name": "owner",
      "outputs": [
        {
          "internalType": "address",
          "name": "",
          "type": "address"
        }
      ],
      "stateMutability": "view",
      "type": "function"
    },
    {
      "inputs": [
        {
          "internalType": "uint256",
          "name": "tokenId",
          "type": "uint256"
        }
      ],
      "name": "ownerOf",
      "outputs": [
        {
          "internalType": "address",
          "name": "",
          "type": "address"
        }
      ],
      "stateMutability": "view",
      "type": "function"
    },
    {
      "inputs": [],
      "name": "publicPrice",
      "outputs": [
        {
          "internalType": "uint256",
          "name": "",
          "type": "uint256"
        }
      ],
      "stateMutability": "view",
      "type": "function"
    },
    {
      "inputs": [
        {
          "internalType": "uint256",
          "name": "quantity",
          "type": "uint256"
        }
      ],
      "name": "publicSaleMint",
      "outputs": [],
      "stateMutability": "payable",
      "type": "function"
    },
    {
      "inputs": [],
      "name": "publicSalePerMint",
      "outputs": [
        {
          "internalType": "uint256",
          "name": "",
          "type": "uint256"
        }
      ],
      "stateMutability": "view",
      "type": "function"
    },
    {
      "inputs": [],
      "name": "publicSaleStatus",
      "outputs": [
        {
          "internalType": "bool",
          "name": "",
          "type": "bool"
        }
      ],
      "stateMutability": "view",
      "type": "function"
    },
    {
      "inputs": [],
      "name": "renounceOwnership",
      "outputs": [],
      "stateMutability": "nonpayable",
      "type": "function"
    },
    {
      "inputs": [
        {
          "internalType": "address",
          "name": "from",
          "type": "address"
        },
        {
          "internalType": "address",
          "name": "to",
          "type": "address"
        },
        {
          "internalType": "uint256",
          "name": "tokenId",
          "type": "uint256"
        }
      ],
      "name": "safeTransferFrom",
      "outputs": [],
      "stateMutability": "nonpayable",
      "type": "function"
    },
    {
      "inputs": [
        {
          "internalType": "address",
          "name": "from",
          "type": "address"
        },
        {
          "internalType": "address",
          "name": "to",
          "type": "address"
        },
        {
          "internalType": "uint256",
          "name": "tokenId",
          "type": "uint256"
        },
        {
          "internalType": "bytes",
          "name": "_data",
          "type": "bytes"
        }
      ],
      "name": "safeTransferFrom",
      "outputs": [],
      "stateMutability": "nonpayable",
      "type": "function"
    },
    {
      "inputs": [
        {
          "internalType": "address",
          "name": "operator",
          "type": "address"
        },
        {
          "internalType": "bool",
          "name": "approved",
          "type": "bool"
        }
      ],
      "name": "setApprovalForAll",
      "outputs": [],
      "stateMutability": "nonpayable",
      "type": "function"
    },
    {
      "inputs": [
        {
          "internalType": "string",
          "name": "baseURI",
          "type": "string"
        }
      ],
      "name": "setBaseURI",
      "outputs": [],
      "stateMutability": "nonpayable",
      "type": "function"
    },
    {
      "inputs": [
        {
          "internalType": "bool",
          "name": "newFreeMintStatus",
          "type": "bool"
        }
      ],
      "name": "setFreeMintStatus",
      "outputs": [],
      "stateMutability": "nonpayable",
      "type": "function"
    },
    {
      "inputs": [
        {
          "internalType": "uint256",
          "name": "quantity",
          "type": "uint256"
        }
      ],
      "name": "setOwnersExplicit",
      "outputs": [],
      "stateMutability": "nonpayable",
      "type": "function"
    },
    {
      "inputs": [
        {
          "internalType": "uint256",
          "name": "newPublicPrice",
          "type": "uint256"
        }
      ],
      "name": "setPublicPrice",
      "outputs": [],
      "stateMutability": "nonpayable",
      "type": "function"
    },
    {
      "inputs": [
        {
          "internalType": "bool",
          "name": "newPublicSaleStatus",
          "type": "bool"
        }
      ],
      "name": "setPublicSaleStatus",
      "outputs": [],
      "stateMutability": "nonpayable",
      "type": "function"
    },
    {
      "inputs": [
        {
          "internalType": "bytes4",
          "name": "interfaceId",
          "type": "bytes4"
        }
      ],
      "name": "supportsInterface",
      "outputs": [
        {
          "internalType": "bool",
          "name": "",
          "type": "bool"
        }
      ],
      "stateMutability": "view",
      "type": "function"
    },
    {
      "inputs": [],
      "name": "symbol",
      "outputs": [
        {
          "internalType": "string",
          "name": "",
          "type": "string"
        }
      ],
      "stateMutability": "view",
      "type": "function"
    },
    {
      "inputs": [
        {
          "internalType": "uint256",
          "name": "index",
          "type": "uint256"
        }
      ],
      "name": "tokenByIndex",
      "outputs": [
        {
          "internalType": "uint256",
          "name": "",
          "type": "uint256"
        }
      ],
      "stateMutability": "view",
      "type": "function"
    },
    {
      "inputs": [
        {
          "internalType": "address",
          "name": "owner",
          "type": "address"
        },
        {
          "internalType": "uint256",
          "name": "index",
          "type": "uint256"
        }
      ],
      "name": "tokenOfOwnerByIndex",
      "outputs": [
        {
          "internalType": "uint256",
          "name": "",
          "type": "uint256"
        }
      ],
      "stateMutability": "view",
      "type": "function"
    },
    {
      "inputs": [
        {
          "internalType": "uint256",
          "name": "tokenId",
          "type": "uint256"
        }
      ],
      "name": "tokenURI",
      "outputs": [
        {
          "internalType": "string",
          "name": "",
          "type": "string"
        }
      ],
      "stateMutability": "view",
      "type": "function"
    },
    {
      "inputs": [],
      "name": "totalSupply",
      "outputs": [
        {
          "internalType": "uint256",
          "name": "",
          "type": "uint256"
        }
      ],
      "stateMutability": "view",
      "type": "function"
    },
    {
      "inputs": [
        {
          "internalType": "address",
          "name": "from",
          "type": "address"
        },
        {
          "internalType": "address",
          "name": "to",
          "type": "address"
        },
        {
          "internalType": "uint256",
          "name": "tokenId",
          "type": "uint256"
        }
      ],
      "name": "transferFrom",
      "outputs": [],
      "stateMutability": "nonpayable",
      "type": "function"
    },
    {
      "inputs": [
        {
          "internalType": "address",
          "name": "newOwner",
          "type": "address"
        }
      ],
      "name": "transferOwnership",
      "outputs": [],
      "stateMutability": "nonpayable",
      "type": "function"
    },
    {
      "inputs": [],
      "name": "withdrawMoney",
      "outputs": [],
      "stateMutability": "nonpayable",
      "type": "function"
    }
  ],
  "bytecode": "0x61010060405260006001819055600855600b805460ff199081169091556618838370f34000600c556103e8600d55600560c052600e8054909116905561035a600f55600260e0523480156200005357600080fd5b5060405162003592380380620035928339810160408190526200007691620002d8565b60405180604001604052806005815260200164527a756b6960d81b81525060405180604001604052806003815260200162525a4b60e81b815250600a610760620000cf620000c9620001de60201b60201c565b620001e2565b60008111620001335760405162461bcd60e51b815260206004820152602560248201527f636f6c6c656374696f6e206d75737420686176652061206e6f6e7a65726f20736044820152647570706c7960d81b60648201526084015b60405180910390fd5b60008211620001855760405162461bcd60e51b815260206004820152601e60248201527f6d61782062617463682073697a65206d757374206265206e6f6e7a65726f000060448201526064016200012a565b83516200019a90600290602087019062000232565b508251620001b090600390602086019062000232565b5060a091909152608052505060016009558051620001d690600a90602084019062000232565b505062000401565b3390565b600080546001600160a01b038381166001600160a01b0319831681178455604051919092169283917f8be0079c531659141344cd1fd0a4f28419497f9722a3daafe3b4186f6b6457e09190a35050565b8280546200024090620003ae565b90600052602060002090601f016020900481019282620002645760008555620002af565b82601f106200027f57805160ff1916838001178555620002af565b82800160010185558215620002af579182015b82811115620002af57825182559160200191906001019062000292565b50620002bd929150620002c1565b5090565b5b80821115620002bd5760008155600101620002c2565b60006020808385031215620002eb578182fd5b82516001600160401b038082111562000302578384fd5b818501915085601f83011262000316578384fd5b8151818111156200032b576200032b620003eb565b604051601f8201601f19908116603f01168101908382118183101715620003565762000356620003eb565b8160405282815288868487010111156200036e578687fd5b8693505b8284101562000391578484018601518185018701529285019262000372565b82841115620003a257868684830101525b98975050505050505050565b600181811c90821680620003c357607f821691505b60208210811415620003e557634e487b7160e01b600052602260045260246000fd5b50919050565b634e487b7160e01b600052604160045260246000fd5b60805160a05160c05160e0516130fc62000496600039600081816105d6015281816110a3015261114e015260008181610423015261158d015260008181611829015281816118610152818161189d015281816118d0015281816122680152818161229201526128b2015260008181610fce015281816114b80152818161177b01528181612043015261207501526130fc6000f3fe6080604052600436106102c65760003560e01c80639dc74e6311610179578063bc63f02e116100d6578063d7224ba01161008a578063e985e9c511610064578063e985e9c5146107b8578063f2fde38b14610801578063fa6c6a571461082157600080fd5b8063d7224ba014610762578063d9c0f6b614610778578063dc33e6811461079857600080fd5b8063c87b56dd116100bb578063c87b56dd146106fd578063cae3a2071461071d578063d547cfb71461074d57600080fd5b8063bc63f02e146106bd578063c6275255146106dd57600080fd5b8063ac4460021161012d578063b423fe6711610112578063b423fe6714610663578063b6c693e514610683578063b88d4fde1461069d57600080fd5b8063ac4460021461063b578063b3ab66b01461065057600080fd5b8063a591252d1161015e578063a591252d146105c4578063a5b214ad146105f8578063a945bf801461062557600080fd5b80639dc74e631461058e578063a22cb465146105a457600080fd5b806342842e0e11610227578063715018a6116101db5780638da5cb5b116101c05780638da5cb5b1461050d5780639231ab2a1461052b57806395d89b411461057957600080fd5b8063715018a6146104e55780637c928fe9146104fa57600080fd5b806355f804b31161020c57806355f804b3146104855780636352211e146104a557806370a08231146104c557600080fd5b806342842e0e146104455780634f6ccce71461046557600080fd5b806323b872dd1161027e5780632f745c59116102635780632f745c59146103db5780633a467e3d146103fb5780633ba5ae241461041157600080fd5b806323b872dd1461039b5780632d20fb60146103bb57600080fd5b8063081812fc116102af578063081812fc14610322578063095ea7b31461035a57806318160ddd1461037c57600080fd5b806301ffc9a7146102cb57806306fdde0314610300575b600080fd5b3480156102d757600080fd5b506102eb6102e6366004612d8c565b61083b565b60405190151581526020015b60405180910390f35b34801561030c57600080fd5b5061031561090c565b6040516102f79190612f02565b34801561032e57600080fd5b5061034261033d366004612e31565b61099e565b6040516001600160a01b0390911681526020016102f7565b34801561036657600080fd5b5061037a610375366004612d49565b610a3d565b005b34801561038857600080fd5b506001545b6040519081526020016102f7565b3480156103a757600080fd5b5061037a6103b6366004612c10565b610b4a565b3480156103c757600080fd5b5061037a6103d6366004612e31565b610b55565b3480156103e757600080fd5b5061038d6103f6366004612d49565b610c18565b34801561040757600080fd5b5061038d600f5481565b34801561041d57600080fd5b5061038d7f000000000000000000000000000000000000000000000000000000000000000081565b34801561045157600080fd5b5061037a610460366004612c10565b610d95565b34801561047157600080fd5b5061038d610480366004612e31565b610db0565b34801561049157600080fd5b5061037a6104a0366004612dc4565b610e0d565b3480156104b157600080fd5b506103426104c0366004612e31565b610e73565b3480156104d157600080fd5b5061038d6104e0366004612bc4565b610e85565b3480156104f157600080fd5b5061037a610f28565b61037a610508366004612e31565b610f8e565b34801561051957600080fd5b506000546001600160a01b0316610342565b34801561053757600080fd5b5061054b610546366004612e31565b61123d565b6040805182516001600160a01b0316815260209283015167ffffffffffffffff1692810192909252016102f7565b34801561058557600080fd5b5061031561125a565b34801561059a57600080fd5b5061038d600d5481565b3480156105b057600080fd5b5061037a6105bf366004612d20565b611269565b3480156105d057600080fd5b5061038d7f000000000000000000000000000000000000000000000000000000000000000081565b34801561060457600080fd5b5061038d610613366004612bc4565b60106020526000908152604090205481565b34801561063157600080fd5b5061038d600c5481565b34801561064757600080fd5b5061037a61132e565b61037a61065e366004612e31565b611478565b34801561066f57600080fd5b5061037a61067e366004612d72565b611636565b34801561068f57600080fd5b50600b546102eb9060ff1681565b3480156106a957600080fd5b5061037a6106b8366004612c4b565b6116a3565b3480156106c957600080fd5b5061037a6106d8366004612e49565b61171f565b3480156106e957600080fd5b5061037a6106f8366004612e31565b6118fa565b34801561070957600080fd5b50610315610718366004612e31565b611959565b34801561072957600080fd5b506102eb610738366004612bc4565b60116020526000908152604090205460ff1681565b34801561075957600080fd5b50610315611a0e565b34801561076e57600080fd5b5061038d60085481565b34801561078457600080fd5b5061037a610793366004612d72565b611a9c565b3480156107a457600080fd5b5061038d6107b3366004612bc4565b611b09565b3480156107c457600080fd5b506102eb6107d3366004612bde565b6001600160a01b03918216600090815260076020908152604080832093909416825291909152205460ff1690565b34801561080d57600080fd5b5061037a61081c366004612bc4565b611b14565b34801561082d57600080fd5b50600e546102eb9060ff1681565b60006001600160e01b031982167f80ac58cd00000000000000000000000000000000000000000000000000000000148061089e57506001600160e01b031982167f5b5e139f00000000000000000000000000000000000000000000000000000000145b806108d257506001600160e01b031982167f780e9d6300000000000000000000000000000000000000000000000000000000145b8061090657507f01ffc9a7000000000000000000000000000000000000000000000000000000006001600160e01b03198316145b92915050565b60606002805461091b90613004565b80601f016020809104026020016040519081016040528092919081815260200182805461094790613004565b80156109945780601f1061096957610100808354040283529160200191610994565b820191906000526020600020905b81548152906001019060200180831161097757829003601f168201915b5050505050905090565b60006109ab826001541190565b610a215760405162461bcd60e51b8152602060048201526024808201527f617070726f76656420717565727920666f72206e6f6e6578697374656e74207460448201527f6f6b656e0000000000000000000000000000000000000000000000000000000060648201526084015b60405180910390fd5b506000908152600660205260409020546001600160a01b031690565b6000610a4882610e73565b9050806001600160a01b0316836001600160a01b03161415610aac5760405162461bcd60e51b815260206004820152601960248201527f617070726f76616c20746f2063757272656e74206f776e6572000000000000006044820152606401610a18565b336001600160a01b0382161480610ac85750610ac881336107d3565b610b3a5760405162461bcd60e51b815260206004820152603060248201527f617070726f76652063616c6c6572206973206e6f74206f776e6572206e6f722060448201527f617070726f76656420666f7220616c6c000000000000000000000000000000006064820152608401610a18565b610b45838383611bf3565b505050565b610b45838383611c5c565b6000546001600160a01b03163314610baf5760405162461bcd60e51b815260206004820181905260248201527f4f776e61626c653a2063616c6c6572206973206e6f7420746865206f776e65726044820152606401610a18565b60026009541415610c025760405162461bcd60e51b815260206004820152601f60248201527f5265656e7472616e637947756172643a207265656e7472616e742063616c6c006044820152606401610a18565b6002600955610c1081611fd2565b506001600955565b6000610c2383610e85565b8210610c715760405162461bcd60e51b815260206004820152601960248201527f6f776e657220696e646578206f7574206f6620626f756e6473000000000000006044820152606401610a18565b6000610c7c60015490565b905060008060005b83811015610d26576000818152600460209081526040918290208251808401909352546001600160a01b038116808452600160a01b90910467ffffffffffffffff169183019190915215610cd757805192505b876001600160a01b0316836001600160a01b03161415610d135786841415610d055750935061090692505050565b83610d0f8161303f565b9450505b5080610d1e8161303f565b915050610c84565b5060405162461bcd60e51b815260206004820152602560248201527f756e61626c6520746f2067657420746f6b656e206f66206f776e65722062792060448201527f696e6465780000000000000000000000000000000000000000000000000000006064820152608401610a18565b610b45838383604051806020016040528060008152506116a3565b6000610dbb60015490565b8210610e095760405162461bcd60e51b815260206004820152601a60248201527f676c6f62616c20696e646578206f7574206f6620626f756e64730000000000006044820152606401610a18565b5090565b6000546001600160a01b03163314610e675760405162461bcd60e51b815260206004820181905260248201527f4f776e61626c653a2063616c6c6572206973206e6f7420746865206f776e65726044820152606401610a18565b610b45600a8383612b08565b6000610e7e826121d3565b5192915050565b60006001600160a01b038216610f035760405162461bcd60e51b815260206004820152602260248201527f62616c616e636520717565727920666f7220746865207a65726f20616464726560448201527f73730000000000000000000000000000000000000000000000000000000000006064820152608401610a18565b506001600160a01b03166000908152600560205260409020546001600160801b031690565b6000546001600160a01b03163314610f825760405162461bcd60e51b815260206004820181905260248201527f4f776e61626c653a2063616c6c6572206973206e6f7420746865206f776e65726044820152606401610a18565b610f8c600061239e565b565b600e5460ff16610fcc5760405162461bcd60e51b81526020600482015260096024820152683737ba103132b3bab760b91b6044820152606401610a18565b7f000000000000000000000000000000000000000000000000000000000000000081610ff760015490565b6110019190612f37565b111561104f5760405162461bcd60e51b815260206004820152601260248201527f72656163686564206d617820737570706c7900000000000000000000000000006044820152606401610a18565b80600f5410156110a15760405162461bcd60e51b815260206004820152601260248201527f72656163686564206d617820616d6f756e7400000000000000000000000000006044820152606401610a18565b7f00000000000000000000000000000000000000000000000000000000000000008111156111115760405162461bcd60e51b815260206004820152601b60248201527f72656163686564206d617820616d6f756e7420706572206d696e7400000000006044820152606401610a18565b3360009081526011602052604090205460ff1661117057336000908152601160209081526040808320805460ff19166001179055601090915290207f000000000000000000000000000000000000000000000000000000000000000090555b336000908152601060205260409020548111156111f45760405162461bcd60e51b8152602060048201526024808201527f726561636865642066726565207065722061646472657373206d696e7420616d60448201527f6f756e74000000000000000000000000000000000000000000000000000000006064820152608401610a18565b3360009081526010602052604081208054839290611213908490612faa565b90915550611223905033826123fb565b80600f60008282546112359190612faa565b909155505050565b6040805180820190915260008082526020820152610906826121d3565b60606003805461091b90613004565b6001600160a01b0382163314156112c25760405162461bcd60e51b815260206004820152601160248201527f617070726f766520746f2063616c6c65720000000000000000000000000000006044820152606401610a18565b3360008181526007602090815260408083206001600160a01b03871680855290835292819020805460ff191686151590811790915590519081529192917f17307eab39ab6107e8899845ad3d59bd9653f200f220920489ca2b5937696c31910160405180910390a35050565b6000546001600160a01b031633146113885760405162461bcd60e51b815260206004820181905260248201527f4f776e61626c653a2063616c6c6572206973206e6f7420746865206f776e65726044820152606401610a18565b600260095414156113db5760405162461bcd60e51b815260206004820152601f60248201527f5265656e7472616e637947756172643a207265656e7472616e742063616c6c006044820152606401610a18565b6002600955604051600090339047908381818185875af1925050503d8060008114611422576040519150601f19603f3d011682016040523d82523d6000602084013e611427565b606091505b5050905080610c105760405162461bcd60e51b815260206004820152601060248201527f5472616e73666572206661696c65642e000000000000000000000000000000006044820152606401610a18565b600b5460ff166114b65760405162461bcd60e51b81526020600482015260096024820152683737ba103132b3bab760b91b6044820152606401610a18565b7f0000000000000000000000000000000000000000000000000000000000000000816114e160015490565b6114eb9190612f37565b11156115395760405162461bcd60e51b815260206004820152601260248201527f72656163686564206d617820737570706c7900000000000000000000000000006044820152606401610a18565b80600d54101561158b5760405162461bcd60e51b815260206004820152601260248201527f72656163686564206d617820616d6f756e7400000000000000000000000000006044820152606401610a18565b7f00000000000000000000000000000000000000000000000000000000000000008111156115fb5760405162461bcd60e51b815260206004820152601b60248201527f72656163686564206d617820616d6f756e7420706572206d696e7400000000006044820152606401610a18565b61160533826123fb565b80600d60008282546116179190612faa565b9091555050600c546116339061162e908390612f63565b612419565b50565b6000546001600160a01b031633146116905760405162461bcd60e51b815260206004820181905260248201527f4f776e61626c653a2063616c6c6572206973206e6f7420746865206f776e65726044820152606401610a18565b600b805460ff1916911515919091179055565b6116ae848484611c5c565b6116ba848484846124a7565b6117195760405162461bcd60e51b815260206004820152602a60248201527f7472616e7366657220746f206e6f6e204552433732315265636569766572206960448201526936b83632b6b2b73a32b960b11b6064820152608401610a18565b50505050565b6000546001600160a01b031633146117795760405162461bcd60e51b815260206004820181905260248201527f4f776e61626c653a2063616c6c6572206973206e6f7420746865206f776e65726044820152606401610a18565b7f0000000000000000000000000000000000000000000000000000000000000000826117a460015490565b6117ae9190612f37565b11156118225760405162461bcd60e51b815260206004820152602760248201527f746f6f206d616e7920616c7265616479206d696e746564206265666f7265206460448201527f6576206d696e74000000000000000000000000000000000000000000000000006064820152608401610a18565b600061184e7f000000000000000000000000000000000000000000000000000000000000000084612f4f565b905060005b8181101561189757611885837f00000000000000000000000000000000000000000000000000000000000000006123fb565b8061188f8161303f565b915050611853565b506118c27f00000000000000000000000000000000000000000000000000000000000000008461305a565b15610b4557610b45826118f57f00000000000000000000000000000000000000000000000000000000000000008661305a565b6123fb565b6000546001600160a01b031633146119545760405162461bcd60e51b815260206004820181905260248201527f4f776e61626c653a2063616c6c6572206973206e6f7420746865206f776e65726044820152606401610a18565b600c55565b6060611966826001541190565b6119b25760405162461bcd60e51b815260206004820152601f60248201527f55524920717565727920666f72206e6f6e6578697374656e7420746f6b656e006044820152606401610a18565b60006119bc6125f8565b905060008151116119dc5760405180602001604052806000815250611a07565b806119e684612607565b6040516020016119f7929190612e97565b6040516020818303038152906040525b9392505050565b600a8054611a1b90613004565b80601f0160208091040260200160405190810160405280929190818152602001828054611a4790613004565b8015611a945780601f10611a6957610100808354040283529160200191611a94565b820191906000526020600020905b815481529060010190602001808311611a7757829003601f168201915b505050505081565b6000546001600160a01b03163314611af65760405162461bcd60e51b815260206004820181905260248201527f4f776e61626c653a2063616c6c6572206973206e6f7420746865206f776e65726044820152606401610a18565b600e805460ff1916911515919091179055565b600061090682612755565b6000546001600160a01b03163314611b6e5760405162461bcd60e51b815260206004820181905260248201527f4f776e61626c653a2063616c6c6572206973206e6f7420746865206f776e65726044820152606401610a18565b6001600160a01b038116611bea5760405162461bcd60e51b815260206004820152602660248201527f4f776e61626c653a206e6577206f776e657220697320746865207a65726f206160448201527f64647265737300000000000000000000000000000000000000000000000000006064820152608401610a18565b6116338161239e565b600082815260066020526040808220805473ffffffffffffffffffffffffffffffffffffffff19166001600160a01b0387811691821790925591518593918516917f8c5be1e5ebec7d5bd14f71427d1e84f3dd0314c0f7b2291e5b200ac8c7c3b92591a4505050565b6000611c67826121d3565b80519091506000906001600160a01b0316336001600160a01b03161480611c9e575033611c938461099e565b6001600160a01b0316145b80611cb057508151611cb090336107d3565b905080611d255760405162461bcd60e51b815260206004820152602960248201527f7472616e736665722063616c6c6572206973206e6f74206f776e6572206e6f7260448201527f20617070726f76656400000000000000000000000000000000000000000000006064820152608401610a18565b846001600160a01b031682600001516001600160a01b031614611d8a5760405162461bcd60e51b815260206004820152601d60248201527f7472616e736665722066726f6d20696e636f7272656374206f776e65720000006044820152606401610a18565b6001600160a01b038416611de05760405162461bcd60e51b815260206004820152601c60248201527f7472616e7366657220746f20746865207a65726f2061646472657373000000006044820152606401610a18565b611df06000848460000151611bf3565b6001600160a01b0385166000908152600560205260408120805460019290611e229084906001600160801b0316612f82565b82546101009290920a6001600160801b038181021990931691831602179091556001600160a01b03861660009081526005602052604081208054600194509092611e6e91859116612f15565b82546001600160801b039182166101009390930a9283029190920219909116179055506040805180820182526001600160a01b03808716825267ffffffffffffffff428116602080850191825260008981526004909152948520935184549151909216600160a01b026001600160e01b03199091169190921617179055611ef6846001612f37565b6000818152600460205260409020549091506001600160a01b0316611f8857611f20816001541190565b15611f885760408051808201825284516001600160a01b03908116825260208087015167ffffffffffffffff9081168285019081526000878152600490935294909120925183549451909116600160a01b026001600160e01b03199094169116179190911790555b83856001600160a01b0316876001600160a01b03167fddf252ad1be2c89b69c2b068fc378daa952ba7f163c4a11628f55a4df523b3ef60405160405180910390a45b505050505050565b600854816120225760405162461bcd60e51b815260206004820152601860248201527f7175616e74697479206d757374206265206e6f6e7a65726f00000000000000006044820152606401610a18565b600060016120308484612f37565b61203a9190612faa565b905061206760017f0000000000000000000000000000000000000000000000000000000000000000612faa565b81111561209c5761209960017f0000000000000000000000000000000000000000000000000000000000000000612faa565b90505b6120a7816001541190565b6121195760405162461bcd60e51b815260206004820152602660248201527f6e6f7420656e6f756768206d696e7465642079657420666f722074686973206360448201527f6c65616e757000000000000000000000000000000000000000000000000000006064820152608401610a18565b815b8181116121bf576000818152600460205260409020546001600160a01b03166121ad576000612149826121d3565b60408051808201825282516001600160a01b03908116825260209384015167ffffffffffffffff9081168584019081526000888152600490965293909420915182549351909416600160a01b026001600160e01b0319909316931692909217179055505b806121b78161303f565b91505061211b565b506121cb816001612f37565b600855505050565b60408051808201909152600080825260208201526121f2826001541190565b6122645760405162461bcd60e51b815260206004820152602160248201527f6f776e657220717565727920666f72206e6f6e6578697374656e7420746f6b6560448201527f6e000000000000000000000000000000000000000000000000000000000000006064820152608401610a18565b60007f000000000000000000000000000000000000000000000000000000000000000083106122c5576122b77f000000000000000000000000000000000000000000000000000000000000000084612faa565b6122c2906001612f37565b90505b825b81811061232f576000818152600460209081526040918290208251808401909352546001600160a01b038116808452600160a01b90910467ffffffffffffffff16918301919091521561231c57949350505050565b508061232781612fed565b9150506122c7565b5060405162461bcd60e51b815260206004820152602660248201527f756e61626c6520746f2064657465726d696e6520746865206f776e6572206f6660448201527f20746f6b656e00000000000000000000000000000000000000000000000000006064820152608401610a18565b600080546001600160a01b0383811673ffffffffffffffffffffffffffffffffffffffff19831681178455604051919092169283917f8be0079c531659141344cd1fd0a4f28419497f9722a3daafe3b4186f6b6457e09190a35050565b6124158282604051806020016040528060008152506127ff565b5050565b803410156124695760405162461bcd60e51b815260206004820152601660248201527f4e65656420746f2073656e64206d6f7265204554482e000000000000000000006044820152606401610a18565b8034111561163357336108fc61247f8334612faa565b6040518115909202916000818181858888f19350505050158015612415573d6000803e3d6000fd5b60006001600160a01b0384163b156125ec57604051630a85bd0160e11b81526001600160a01b0385169063150b7a02906124eb903390899088908890600401612ec6565b602060405180830381600087803b15801561250557600080fd5b505af1925050508015612535575060408051601f3d908101601f1916820190925261253291810190612da8565b60015b6125d2573d808015612563576040519150601f19603f3d011682016040523d82523d6000602084013e612568565b606091505b5080516125ca5760405162461bcd60e51b815260206004820152602a60248201527f7472616e7366657220746f206e6f6e204552433732315265636569766572206960448201526936b83632b6b2b73a32b960b11b6064820152608401610a18565b805181602001fd5b6001600160e01b031916630a85bd0160e11b1490506125f0565b5060015b949350505050565b6060600a805461091b90613004565b60608161264757505060408051808201909152600181527f3000000000000000000000000000000000000000000000000000000000000000602082015290565b8160005b8115612671578061265b8161303f565b915061266a9050600a83612f4f565b915061264b565b60008167ffffffffffffffff81111561269a57634e487b7160e01b600052604160045260246000fd5b6040519080825280601f01601f1916602001820160405280156126c4576020820181803683370190505b5090505b84156125f0576126d9600183612faa565b91506126e6600a8661305a565b6126f1906030612f37565b60f81b81838151811061271457634e487b7160e01b600052603260045260246000fd5b60200101907effffffffffffffffffffffffffffffffffffffffffffffffffffffffffffff1916908160001a90535061274e600a86612f4f565b94506126c8565b60006001600160a01b0382166127d35760405162461bcd60e51b815260206004820152602860248201527f6e756d626572206d696e74656420717565727920666f7220746865207a65726f60448201527f20616464726573730000000000000000000000000000000000000000000000006064820152608401610a18565b506001600160a01b0316600090815260056020526040902054600160801b90046001600160801b031690565b6001546001600160a01b0384166128585760405162461bcd60e51b815260206004820152601860248201527f6d696e7420746f20746865207a65726f206164647265737300000000000000006044820152606401610a18565b612863816001541190565b156128b05760405162461bcd60e51b815260206004820152601460248201527f746f6b656e20616c7265616479206d696e7465640000000000000000000000006044820152606401610a18565b7f00000000000000000000000000000000000000000000000000000000000000008311156129205760405162461bcd60e51b815260206004820152601960248201527f7175616e7469747920746f206d696e7420746f6f2068696768000000000000006044820152606401610a18565b6001600160a01b0384166000908152600560209081526040918290208251808401845290546001600160801b038082168352600160801b909104169181019190915281518083019092528051909190819061297c908790612f15565b6001600160801b0316815260200185836020015161299a9190612f15565b6001600160801b039081169091526001600160a01b0380881660008181526005602090815260408083208751978301518716600160801b0297909616969096179094558451808601865291825267ffffffffffffffff4281168386019081528883526004909552948120915182549451909516600160a01b026001600160e01b031990941694909216939093179190911790915582905b85811015612afd5760405182906001600160a01b038916906000907fddf252ad1be2c89b69c2b068fc378daa952ba7f163c4a11628f55a4df523b3ef908290a4612a7e60008884886124a7565b612add5760405162461bcd60e51b815260206004820152602a60248201527f7472616e7366657220746f206e6f6e204552433732315265636569766572206960448201526936b83632b6b2b73a32b960b11b6064820152608401610a18565b81612ae78161303f565b9250508080612af59061303f565b915050612a31565b506001819055611fca565b828054612b1490613004565b90600052602060002090601f016020900481019282612b365760008555612b7c565b82601f10612b4f5782800160ff19823516178555612b7c565b82800160010185558215612b7c579182015b82811115612b7c578235825591602001919060010190612b61565b50610e099291505b80821115610e095760008155600101612b84565b80356001600160a01b0381168114612baf57600080fd5b919050565b80358015158114612baf57600080fd5b600060208284031215612bd5578081fd5b611a0782612b98565b60008060408385031215612bf0578081fd5b612bf983612b98565b9150612c0760208401612b98565b90509250929050565b600080600060608486031215612c24578081fd5b612c2d84612b98565b9250612c3b60208501612b98565b9150604084013590509250925092565b60008060008060808587031215612c60578081fd5b612c6985612b98565b9350612c7760208601612b98565b925060408501359150606085013567ffffffffffffffff80821115612c9a578283fd5b818701915087601f830112612cad578283fd5b813581811115612cbf57612cbf61309a565b604051601f8201601f19908116603f01168101908382118183101715612ce757612ce761309a565b816040528281528a6020848701011115612cff578586fd5b82602086016020830137918201602001949094529598949750929550505050565b60008060408385031215612d32578182fd5b612d3b83612b98565b9150612c0760208401612bb4565b60008060408385031215612d5b578182fd5b612d6483612b98565b946020939093013593505050565b600060208284031215612d83578081fd5b611a0782612bb4565b600060208284031215612d9d578081fd5b8135611a07816130b0565b600060208284031215612db9578081fd5b8151611a07816130b0565b60008060208385031215612dd6578182fd5b823567ffffffffffffffff80821115612ded578384fd5b818501915085601f830112612e00578384fd5b813581811115612e0e578485fd5b866020828501011115612e1f578485fd5b60209290920196919550909350505050565b600060208284031215612e42578081fd5b5035919050565b60008060408385031215612e5b578182fd5b82359150612c0760208401612b98565b60008151808452612e83816020860160208601612fc1565b601f01601f19169290920160200192915050565b60008351612ea9818460208801612fc1565b835190830190612ebd818360208801612fc1565b01949350505050565b60006001600160a01b03808716835280861660208401525083604083015260806060830152612ef86080830184612e6b565b9695505050505050565b602081526000611a076020830184612e6b565b60006001600160801b03808316818516808303821115612ebd57612ebd61306e565b60008219821115612f4a57612f4a61306e565b500190565b600082612f5e57612f5e613084565b500490565b6000816000190483118215151615612f7d57612f7d61306e565b500290565b60006001600160801b0383811690831681811015612fa257612fa261306e565b039392505050565b600082821015612fbc57612fbc61306e565b500390565b60005b83811015612fdc578181015183820152602001612fc4565b838111156117195750506000910152565b600081612ffc57612ffc61306e565b506000190190565b600181811c9082168061301857607f821691505b6020821081141561303957634e487b7160e01b600052602260045260246000fd5b50919050565b60006000198214156130535761305361306e565b5060010190565b60008261306957613069613084565b500690565b634e487b7160e01b600052601160045260246000fd5b634e487b7160e01b600052601260045260246000fd5b634e487b7160e01b600052604160045260246000fd5b6001600160e01b03198116811461163357600080fdfea2646970667358221220dd7d2a5a7254291e2a484fbfba545b59efbde4ab2d727f237280742cf57f7b6064736f6c63430008040033",
  "linkReferences": {},
  "deployedLinkReferences": {}
}