{
  "_format": "hh-sol-artifact-1",
  "contractName": "Rzuki",
  "sourceName": "contracts/Rzuki.sol",
  "abi": [
    {
      "inputs": [
        {
          "internalType": "string",
          "name": "initBaseURI",
          "type": "string"
        }
      ],
      "stateMutability": "nonpayable",
      "type": "constructor"
    },
    {
      "anonymous": false,
      "inputs": [
        {
          "indexed": true,
          "internalType": "address",
          "name": "owner",
          "type": "address"
        },
        {
          "indexed": true,
          "internalType": "address",
          "name": "approved",
          "type": "address"
        },
        {
          "indexed": true,
          "internalType": "uint256",
          "name": "tokenId",
          "type": "uint256"
        }
      ],
      "name": "Approval",
      "type": "event"
    },
    {
      "anonymous": false,
      "inputs": [
        {
          "indexed": true,
          "internalType": "address",
          "name": "owner",
          "type": "address"
        },
        {
          "indexed": true,
          "internalType": "address",
          "name": "operator",
          "type": "address"
        },
        {
          "indexed": false,
          "internalType": "bool",
          "name": "approved",
          "type": "bool"
        }
      ],
      "name": "ApprovalForAll",
      "type": "event"
    },
    {
      "anonymous": false,
      "inputs": [
        {
          "indexed": true,
          "internalType": "address",
          "name": "previousOwner",
          "type": "address"
        },
        {
          "indexed": true,
          "internalType": "address",
          "name": "newOwner",
          "type": "address"
        }
      ],
      "name": "OwnershipTransferred",
      "type": "event"
    },
    {
      "anonymous": false,
      "inputs": [
        {
          "indexed": true,
          "internalType": "address",
          "name": "from",
          "type": "address"
        },
        {
          "indexed": true,
          "internalType": "address",
          "name": "to",
          "type": "address"
        },
        {
          "indexed": true,
          "internalType": "uint256",
          "name": "tokenId",
          "type": "uint256"
        }
      ],
      "name": "Transfer",
      "type": "event"
    },
    {
      "inputs": [
        {
          "internalType": "address",
          "name": "",
          "type": "address"
        }
      ],
      "name": "allowListAppeared",
      "outputs": [
        {
          "internalType": "bool",
          "name": "",
          "type": "bool"
        }
      ],
      "stateMutability": "view",
      "type": "function"
    },
    {
      "inputs": [
        {
          "internalType": "uint256",
          "name": "quantity",
          "type": "uint256"
        },
        {
          "internalType": "bytes32[]",
          "name": "proof",
          "type": "bytes32[]"
        }
      ],
      "name": "allowListMint",
      "outputs": [],
      "stateMutability": "payable",
      "type": "function"
    },
    {
      "inputs": [],
      "name": "allowListMintAmount",
      "outputs": [
        {
          "internalType": "uint256",
          "name": "",
          "type": "uint256"
        }
      ],
      "stateMutability": "view",
      "type": "function"
    },
    {
      "inputs": [],
      "name": "allowListMintPrice",
      "outputs": [
        {
          "internalType": "uint256",
          "name": "",
          "type": "uint256"
        }
      ],
      "stateMutability": "view",
      "type": "function"
    },
    {
      "inputs": [],
      "name": "allowListStatus",
      "outputs": [
        {
          "internalType": "bool",
          "name": "",
          "type": "bool"
        }
      ],
      "stateMutability": "view",
      "type": "function"
    },
    {
      "inputs": [
        {
          "internalType": "address",
          "name": "",
          "type": "address"
        }
      ],
      "name": "allowListStock",
      "outputs": [
        {
          "internalType": "uint256",
          "name": "",
          "type": "uint256"
        }
      ],
      "stateMutability": "view",
      "type": "function"
    },
    {
      "inputs": [],
      "name": "amountForPublicSale",
      "outputs": [
        {
          "internalType": "uint256",
          "name": "",
          "type": "uint256"
        }
      ],
      "stateMutability": "view",
      "type": "function"
    },
    {
      "inputs": [
        {
          "internalType": "address",
          "name": "to",
          "type": "address"
        },
        {
          "internalType": "uint256",
          "name": "tokenId",
          "type": "uint256"
        }
      ],
      "name": "approve",
      "outputs": [],
      "stateMutability": "nonpayable",
      "type": "function"
    },
    {
      "inputs": [
        {
          "internalType": "address",
          "name": "owner",
          "type": "address"
        }
      ],
      "name": "balanceOf",
      "outputs": [
        {
          "internalType": "uint256",
          "name": "",
          "type": "uint256"
        }
      ],
      "stateMutability": "view",
      "type": "function"
    },
    {
      "inputs": [],
      "name": "baseTokenURI",
      "outputs": [
        {
          "internalType": "string",
          "name": "",
          "type": "string"
        }
      ],
      "stateMutability": "view",
      "type": "function"
    },
    {
      "inputs": [
        {
          "internalType": "uint256",
          "name": "tokenId",
          "type": "uint256"
        }
      ],
      "name": "getApproved",
      "outputs": [
        {
          "internalType": "address",
          "name": "",
          "type": "address"
        }
      ],
      "stateMutability": "view",
      "type": "function"
    },
    {
      "inputs": [
        {
          "internalType": "uint256",
          "name": "tokenId",
          "type": "uint256"
        }
      ],
      "name": "getOwnershipData",
      "outputs": [
        {
          "components": [
            {
              "internalType": "address",
              "name": "addr",
              "type": "address"
            },
            {
              "internalType": "uint64",
              "name": "startTimestamp",
              "type": "uint64"
            }
          ],
          "internalType": "struct ERC721A.TokenOwnership",
          "name": "",
          "type": "tuple"
        }
      ],
      "stateMutability": "view",
      "type": "function"
    },
    {
      "inputs": [
        {
          "internalType": "address",
          "name": "owner",
          "type": "address"
        },
        {
          "internalType": "address",
          "name": "operator",
          "type": "address"
        }
      ],
      "name": "isApprovedForAll",
      "outputs": [
        {
          "internalType": "bool",
          "name": "",
          "type": "bool"
        }
      ],
      "stateMutability": "view",
      "type": "function"
    },
    {
      "inputs": [],
      "name": "maxPerAddressDuringMint",
      "outputs": [
        {
          "internalType": "uint256",
          "name": "",
          "type": "uint256"
        }
      ],
      "stateMutability": "view",
      "type": "function"
    },
    {
      "inputs": [],
      "name": "name",
      "outputs": [
        {
          "internalType": "string",
          "name": "",
          "type": "string"
        }
      ],
      "stateMutability": "view",
      "type": "function"
    },
    {
      "inputs": [],
      "name": "nextOwnerToExplicitlySet",
      "outputs": [
        {
          "internalType": "uint256",
          "name": "",
          "type": "uint256"
        }
      ],
      "stateMutability": "view",
      "type": "function"
    },
    {
      "inputs": [
        {
          "internalType": "address",
          "name": "owner",
          "type": "address"
        }
      ],
      "name": "numberMinted",
      "outputs": [
        {
          "internalType": "uint256",
          "name": "",
          "type": "uint256"
        }
      ],
      "stateMutability": "view",
      "type": "function"
    },
    {
      "inputs": [],
      "name": "owner",
      "outputs": [
        {
          "internalType": "address",
          "name": "",
          "type": "address"
        }
      ],
      "stateMutability": "view",
      "type": "function"
    },
    {
      "inputs": [
        {
          "internalType": "uint256",
          "name": "tokenId",
          "type": "uint256"
        }
      ],
      "name": "ownerOf",
      "outputs": [
        {
          "internalType": "address",
          "name": "",
          "type": "address"
        }
      ],
      "stateMutability": "view",
      "type": "function"
    },
    {
      "inputs": [],
      "name": "publicPrice",
      "outputs": [
        {
          "internalType": "uint256",
          "name": "",
          "type": "uint256"
        }
      ],
      "stateMutability": "view",
      "type": "function"
    },
    {
      "inputs": [
        {
          "internalType": "uint256",
          "name": "quantity",
          "type": "uint256"
        }
      ],
      "name": "publicSaleMint",
      "outputs": [],
      "stateMutability": "payable",
      "type": "function"
    },
    {
      "inputs": [],
      "name": "publicSalePerMint",
      "outputs": [
        {
          "internalType": "uint256",
          "name": "",
          "type": "uint256"
        }
      ],
      "stateMutability": "view",
      "type": "function"
    },
    {
      "inputs": [],
      "name": "publicSaleStatus",
      "outputs": [
        {
          "internalType": "bool",
          "name": "",
          "type": "bool"
        }
      ],
      "stateMutability": "view",
      "type": "function"
    },
    {
      "inputs": [],
      "name": "renounceOwnership",
      "outputs": [],
      "stateMutability": "nonpayable",
      "type": "function"
    },
    {
      "inputs": [
        {
          "internalType": "uint256",
          "name": "quantity",
          "type": "uint256"
        },
        {
          "internalType": "address",
          "name": "to",
          "type": "address"
        }
      ],
      "name": "reserveMint",
      "outputs": [],
      "stateMutability": "nonpayable",
      "type": "function"
    },
    {
      "inputs": [
        {
          "internalType": "address",
          "name": "from",
          "type": "address"
        },
        {
          "internalType": "address",
          "name": "to",
          "type": "address"
        },
        {
          "internalType": "uint256",
          "name": "tokenId",
          "type": "uint256"
        }
      ],
      "name": "safeTransferFrom",
      "outputs": [],
      "stateMutability": "nonpayable",
      "type": "function"
    },
    {
      "inputs": [
        {
          "internalType": "address",
          "name": "from",
          "type": "address"
        },
        {
          "internalType": "address",
          "name": "to",
          "type": "address"
        },
        {
          "internalType": "uint256",
          "name": "tokenId",
          "type": "uint256"
        },
        {
          "internalType": "bytes",
          "name": "_data",
          "type": "bytes"
        }
      ],
      "name": "safeTransferFrom",
      "outputs": [],
      "stateMutability": "nonpayable",
      "type": "function"
    },
    {
      "inputs": [
        {
          "internalType": "uint256",
          "name": "newAllowListMintAmount",
          "type": "uint256"
        }
      ],
      "name": "setAllowListMintAmount",
      "outputs": [],
      "stateMutability": "nonpayable",
      "type": "function"
    },
    {
      "inputs": [
        {
          "internalType": "uint256",
          "name": "newAllowListMintPrice",
          "type": "uint256"
        }
      ],
      "name": "setAllowListMintPrice",
      "outputs": [],
      "stateMutability": "nonpayable",
      "type": "function"
    },
    {
      "inputs": [
        {
          "internalType": "bool",
          "name": "status",
          "type": "bool"
        }
      ],
      "name": "setAllowListStatus",
      "outputs": [],
      "stateMutability": "nonpayable",
      "type": "function"
    },
    {
      "inputs": [
        {
          "internalType": "uint256",
          "name": "newAmountForPublicSale",
          "type": "uint256"
        }
      ],
      "name": "setAmountForPublicSale",
      "outputs": [],
      "stateMutability": "nonpayable",
      "type": "function"
    },
    {
      "inputs": [
        {
          "internalType": "address",
          "name": "operator",
          "type": "address"
        },
        {
          "internalType": "bool",
          "name": "approved",
          "type": "bool"
        }
      ],
      "name": "setApprovalForAll",
      "outputs": [],
      "stateMutability": "nonpayable",
      "type": "function"
    },
    {
      "inputs": [
        {
          "internalType": "string",
          "name": "baseURI",
          "type": "string"
        }
      ],
      "name": "setBaseURI",
      "outputs": [],
      "stateMutability": "nonpayable",
      "type": "function"
    },
    {
      "inputs": [
        {
          "internalType": "bytes32",
          "name": "newMerkleRoot",
          "type": "bytes32"
        }
      ],
      "name": "setMerkleRoot",
      "outputs": [],
      "stateMutability": "nonpayable",
      "type": "function"
    },
    {
      "inputs": [
        {
          "internalType": "uint256",
          "name": "quantity",
          "type": "uint256"
        }
      ],
      "name": "setOwnersExplicit",
      "outputs": [],
      "stateMutability": "nonpayable",
      "type": "function"
    },
    {
      "inputs": [
        {
          "internalType": "uint256",
          "name": "newPublicPrice",
          "type": "uint256"
        }
      ],
      "name": "setPublicPrice",
      "outputs": [],
      "stateMutability": "nonpayable",
      "type": "function"
    },
    {
      "inputs": [
        {
          "internalType": "bool",
          "name": "newPublicSaleStatus",
          "type": "bool"
        }
      ],
      "name": "setPublicSaleStatus",
      "outputs": [],
      "stateMutability": "nonpayable",
      "type": "function"
    },
    {
      "inputs": [
        {
          "internalType": "bytes4",
          "name": "interfaceId",
          "type": "bytes4"
        }
      ],
      "name": "supportsInterface",
      "outputs": [
        {
          "internalType": "bool",
          "name": "",
          "type": "bool"
        }
      ],
      "stateMutability": "view",
      "type": "function"
    },
    {
      "inputs": [],
      "name": "symbol",
      "outputs": [
        {
          "internalType": "string",
          "name": "",
          "type": "string"
        }
      ],
      "stateMutability": "view",
      "type": "function"
    },
    {
      "inputs": [
        {
          "internalType": "uint256",
          "name": "index",
          "type": "uint256"
        }
      ],
      "name": "tokenByIndex",
      "outputs": [
        {
          "internalType": "uint256",
          "name": "",
          "type": "uint256"
        }
      ],
      "stateMutability": "view",
      "type": "function"
    },
    {
      "inputs": [
        {
          "internalType": "address",
          "name": "owner",
          "type": "address"
        },
        {
          "internalType": "uint256",
          "name": "index",
          "type": "uint256"
        }
      ],
      "name": "tokenOfOwnerByIndex",
      "outputs": [
        {
          "internalType": "uint256",
          "name": "",
          "type": "uint256"
        }
      ],
      "stateMutability": "view",
      "type": "function"
    },
    {
      "inputs": [
        {
          "internalType": "uint256",
          "name": "tokenId",
          "type": "uint256"
        }
      ],
      "name": "tokenURI",
      "outputs": [
        {
          "internalType": "string",
          "name": "",
          "type": "string"
        }
      ],
      "stateMutability": "view",
      "type": "function"
    },
    {
      "inputs": [],
      "name": "totalSupply",
      "outputs": [
        {
          "internalType": "uint256",
          "name": "",
          "type": "uint256"
        }
      ],
      "stateMutability": "view",
      "type": "function"
    },
    {
      "inputs": [
        {
          "internalType": "address",
          "name": "from",
          "type": "address"
        },
        {
          "internalType": "address",
          "name": "to",
          "type": "address"
        },
        {
          "internalType": "uint256",
          "name": "tokenId",
          "type": "uint256"
        }
      ],
      "name": "transferFrom",
      "outputs": [],
      "stateMutability": "nonpayable",
      "type": "function"
    },
    {
      "inputs": [
        {
          "internalType": "address",
          "name": "newOwner",
          "type": "address"
        }
      ],
      "name": "transferOwnership",
      "outputs": [],
      "stateMutability": "nonpayable",
      "type": "function"
    },
    {
      "inputs": [],
      "name": "withdrawMoney",
      "outputs": [],
      "stateMutability": "nonpayable",
      "type": "function"
    }
  ],
  "bytecode": "0x6101006040526000600181905560085566038d7ea4c68000600b55600c805460ff19908116909155610378600d55600260c052601180549091169055660e35fa931a00006012556103e8601355600560e0523480156200005e57600080fd5b50604051620039e5380380620039e58339810160408190526200008191620002e3565b60405180604001604052806005815260200164527a756b6960d81b81525060405180604001604052806003815260200162525a4b60e81b815250600a610760620000da620000d4620001e960201b60201c565b620001ed565b600081116200013e5760405162461bcd60e51b815260206004820152602560248201527f636f6c6c656374696f6e206d75737420686176652061206e6f6e7a65726f20736044820152647570706c7960d81b60648201526084015b60405180910390fd5b60008211620001905760405162461bcd60e51b815260206004820152601e60248201527f6d61782062617463682073697a65206d757374206265206e6f6e7a65726f0000604482015260640162000135565b8351620001a59060029060208701906200023d565b508251620001bb9060039060208601906200023d565b5060a091909152608052505060016009558051620001e190600a9060208401906200023d565b50506200040c565b3390565b600080546001600160a01b038381166001600160a01b0319831681178455604051919092169283917f8be0079c531659141344cd1fd0a4f28419497f9722a3daafe3b4186f6b6457e09190a35050565b8280546200024b90620003b9565b90600052602060002090601f0160209004810192826200026f5760008555620002ba565b82601f106200028a57805160ff1916838001178555620002ba565b82800160010185558215620002ba579182015b82811115620002ba5782518255916020019190600101906200029d565b50620002c8929150620002cc565b5090565b5b80821115620002c85760008155600101620002cd565b60006020808385031215620002f6578182fd5b82516001600160401b03808211156200030d578384fd5b818501915085601f83011262000321578384fd5b815181811115620003365762000336620003f6565b604051601f8201601f19908116603f01168101908382118183101715620003615762000361620003f6565b81604052828152888684870101111562000379578687fd5b8693505b828410156200039c57848401860151818501870152928501926200037d565b82841115620003ad57868684830101525b98975050505050505050565b600181811c90821680620003ce57607f821691505b60208210811415620003f057634e487b7160e01b600052602260045260246000fd5b50919050565b634e487b7160e01b600052604160045260246000fd5b60805160a05160c05160e05161353d620004a8600039600081816104b5015261170801526000818161062e0152611c050152600081816111560152818161118e015281816111ca015281816111fd01528181612547015281816125710152612b89015260008181610ef9015281816110a80152818161163301528181611a6301528181611e1b015281816123040152612336015261353d6000f3fe6080604052600436106102fd5760003560e01c80638bc35c2f1161018f578063b88d4fde116100e1578063dc33e6811161008a578063ec8bda8e11610064578063ec8bda8e146108b9578063f2fde38b146108cc578063fdeb6f83146108ec57600080fd5b8063dc33e68114610820578063e1ab4f6814610840578063e985e9c51461087057600080fd5b8063c87b56dd116100bb578063c87b56dd146107d5578063d547cfb7146107f5578063d7224ba01461080a57600080fd5b8063b88d4fde1461077f578063bab442251461079f578063c6275255146107b557600080fd5b8063a22cb46511610143578063b3ab66b01161011d578063b3ab66b014610732578063b423fe6714610745578063b6c693e51461076557600080fd5b8063a22cb465146106e7578063a945bf8014610707578063ac4460021461071d57600080fd5b80639231ab2a116101745780639231ab2a1461066e57806395d89b41146106bc5780639dc74e63146106d157600080fd5b80638bc35c2f1461061c5780638da5cb5b1461065057600080fd5b80633ba5ae241161025357806368855b64116101fc5780637cb64759116101d65780637cb64759146105c2578063802751ca146105e257806385284573146105fc57600080fd5b806368855b641461057757806370a082311461058d578063715018a6146105ad57600080fd5b806355f804b31161022d57806355f804b31461051757806360b02f70146105375780636352211e1461055757600080fd5b80633ba5ae24146104a357806342842e0e146104d75780634f6ccce7146104f757600080fd5b806318160ddd116102b55780632f745c591161028f5780632f745c5914610443578063300bc3a11461046357806330d3fcd91461048357600080fd5b806318160ddd146103ee57806323b872dd146104035780632d20fb601461042357600080fd5b806306fdde03116102e657806306fdde0314610372578063081812fc14610394578063095ea7b3146103cc57600080fd5b806301ffc9a714610302578063050c8ffc14610337575b600080fd5b34801561030e57600080fd5b5061032261031d3660046130e0565b61090c565b60405190151581526020015b60405180910390f35b34801561034357600080fd5b50610364610352366004612f1d565b60106020526000908152604090205481565b60405190815260200161032e565b34801561037e57600080fd5b506103876109dd565b60405161032e91906132f2565b3480156103a057600080fd5b506103b46103af3660046130c8565b610a6f565b6040516001600160a01b03909116815260200161032e565b3480156103d857600080fd5b506103ec6103e7366004613085565b610b0e565b005b3480156103fa57600080fd5b50600154610364565b34801561040f57600080fd5b506103ec61041e366004612f69565b610c1b565b34801561042f57600080fd5b506103ec61043e3660046130c8565b610c26565b34801561044f57600080fd5b5061036461045e366004613085565b610cd7565b34801561046f57600080fd5b506103ec61047e3660046130ae565b610e54565b34801561048f57600080fd5b506103ec61049e3660046130c8565b610eaf565b3480156104af57600080fd5b506103647f000000000000000000000000000000000000000000000000000000000000000081565b3480156104e357600080fd5b506103ec6104f2366004612f69565b610f92565b34801561050357600080fd5b506103646105123660046130c8565b610fad565b34801561052357600080fd5b506103ec610532366004613118565b61100a565b34801561054357600080fd5b506103ec610552366004613185565b61105e565b34801561056357600080fd5b506103b46105723660046130c8565b611227565b34801561058357600080fd5b50610364600b5481565b34801561059957600080fd5b506103646105a8366004612f1d565b611239565b3480156105b957600080fd5b506103ec6112dc565b3480156105ce57600080fd5b506103ec6105dd3660046130c8565b611330565b3480156105ee57600080fd5b50600c546103229060ff1681565b34801561060857600080fd5b506103ec6106173660046130c8565b61137d565b34801561062857600080fd5b506103647f000000000000000000000000000000000000000000000000000000000000000081565b34801561065c57600080fd5b506000546001600160a01b03166103b4565b34801561067a57600080fd5b5061068e6106893660046130c8565b6113ca565b6040805182516001600160a01b0316815260209283015167ffffffffffffffff16928101929092520161032e565b3480156106c857600080fd5b506103876113e7565b3480156106dd57600080fd5b5061036460135481565b3480156106f357600080fd5b506103ec61070236600461305c565b6113f6565b34801561071357600080fd5b5061036460125481565b34801561072957600080fd5b506103ec6114bb565b6103ec6107403660046130c8565b6115f3565b34801561075157600080fd5b506103ec6107603660046130ae565b6117b1565b34801561077157600080fd5b506011546103229060ff1681565b34801561078b57600080fd5b506103ec61079a366004612fa4565b61180c565b3480156107ab57600080fd5b50610364600d5481565b3480156107c157600080fd5b506103ec6107d03660046130c8565b611888565b3480156107e157600080fd5b506103876107f03660046130c8565b6118d5565b34801561080157600080fd5b5061038761198a565b34801561081657600080fd5b5061036460085481565b34801561082c57600080fd5b5061036461083b366004612f1d565b611a18565b34801561084c57600080fd5b5061032261085b366004612f1d565b600f6020526000908152604090205460ff1681565b34801561087c57600080fd5b5061032261088b366004612f37565b6001600160a01b03918216600090815260076020908152604080832093909416825291909152205460ff1690565b6103ec6108c73660046131a7565b611a23565b3480156108d857600080fd5b506103ec6108e7366004612f1d565b611d04565b3480156108f857600080fd5b506103ec6109073660046130c8565b611dd1565b60006001600160e01b031982167f80ac58cd00000000000000000000000000000000000000000000000000000000148061096f57506001600160e01b031982167f5b5e139f00000000000000000000000000000000000000000000000000000000145b806109a357506001600160e01b031982167f780e9d6300000000000000000000000000000000000000000000000000000000145b806109d757507f01ffc9a7000000000000000000000000000000000000000000000000000000006001600160e01b03198316145b92915050565b6060600280546109ec90613425565b80601f0160208091040260200160405190810160405280929190818152602001828054610a1890613425565b8015610a655780601f10610a3a57610100808354040283529160200191610a65565b820191906000526020600020905b815481529060010190602001808311610a4857829003601f168201915b5050505050905090565b6000610a7c826001541190565b610af25760405162461bcd60e51b8152602060048201526024808201527f617070726f76656420717565727920666f72206e6f6e6578697374656e74207460448201527f6f6b656e0000000000000000000000000000000000000000000000000000000060648201526084015b60405180910390fd5b506000908152600660205260409020546001600160a01b031690565b6000610b1982611227565b9050806001600160a01b0316836001600160a01b03161415610b7d5760405162461bcd60e51b815260206004820152601960248201527f617070726f76616c20746f2063757272656e74206f776e6572000000000000006044820152606401610ae9565b336001600160a01b0382161480610b995750610b99813361088b565b610c0b5760405162461bcd60e51b815260206004820152603060248201527f617070726f76652063616c6c6572206973206e6f74206f776e6572206e6f722060448201527f617070726f76656420666f7220616c6c000000000000000000000000000000006064820152608401610ae9565b610c16838383611eb4565b505050565b610c16838383611f1d565b6000546001600160a01b03163314610c6e5760405162461bcd60e51b815260206004820181905260248201526000805160206134e88339815191526044820152606401610ae9565b60026009541415610cc15760405162461bcd60e51b815260206004820152601f60248201527f5265656e7472616e637947756172643a207265656e7472616e742063616c6c006044820152606401610ae9565b6002600955610ccf81612293565b506001600955565b6000610ce283611239565b8210610d305760405162461bcd60e51b815260206004820152601960248201527f6f776e657220696e646578206f7574206f6620626f756e6473000000000000006044820152606401610ae9565b6000610d3b60015490565b905060008060005b83811015610de5576000818152600460209081526040918290208251808401909352546001600160a01b038116808452600160a01b90910467ffffffffffffffff169183019190915215610d9657805192505b876001600160a01b0316836001600160a01b03161415610dd25786841415610dc4575093506109d792505050565b83610dce81613460565b9450505b5080610ddd81613460565b915050610d43565b5060405162461bcd60e51b815260206004820152602560248201527f756e61626c6520746f2067657420746f6b656e206f66206f776e65722062792060448201527f696e6465780000000000000000000000000000000000000000000000000000006064820152608401610ae9565b6000546001600160a01b03163314610e9c5760405162461bcd60e51b815260206004820181905260248201526000805160206134e88339815191526044820152606401610ae9565b600c805460ff1916911515919091179055565b6000546001600160a01b03163314610ef75760405162461bcd60e51b815260206004820181905260248201526000805160206134e88339815191526044820152606401610ae9565b7f0000000000000000000000000000000000000000000000000000000000000000811115610f8d5760405162461bcd60e51b815260206004820152603660248201527f5075626c69632073616c6520616d6f756e74206d75737420626520677265617460448201527f6572207468616e20636f6c6c656374696f6e53697a65000000000000000000006064820152608401610ae9565b601355565b610c168383836040518060200160405280600081525061180c565b6000610fb860015490565b82106110065760405162461bcd60e51b815260206004820152601a60248201527f676c6f62616c20696e646578206f7574206f6620626f756e64730000000000006044820152606401610ae9565b5090565b6000546001600160a01b031633146110525760405162461bcd60e51b815260206004820181905260248201526000805160206134e88339815191526044820152606401610ae9565b610c16600a8383612e61565b6000546001600160a01b031633146110a65760405162461bcd60e51b815260206004820181905260248201526000805160206134e88339815191526044820152606401610ae9565b7f0000000000000000000000000000000000000000000000000000000000000000826110d160015490565b6110db9190613358565b111561114f5760405162461bcd60e51b815260206004820152602760248201527f746f6f206d616e7920616c7265616479206d696e746564206265666f7265206460448201527f6576206d696e74000000000000000000000000000000000000000000000000006064820152608401610ae9565b600061117b7f000000000000000000000000000000000000000000000000000000000000000084613370565b905060005b818110156111c4576111b2837f0000000000000000000000000000000000000000000000000000000000000000612494565b806111bc81613460565b915050611180565b506111ef7f00000000000000000000000000000000000000000000000000000000000000008461347b565b15610c1657610c16826112227f00000000000000000000000000000000000000000000000000000000000000008661347b565b612494565b6000611232826124b2565b5192915050565b60006001600160a01b0382166112b75760405162461bcd60e51b815260206004820152602260248201527f62616c616e636520717565727920666f7220746865207a65726f20616464726560448201527f73730000000000000000000000000000000000000000000000000000000000006064820152608401610ae9565b506001600160a01b03166000908152600560205260409020546001600160801b031690565b6000546001600160a01b031633146113245760405162461bcd60e51b815260206004820181905260248201526000805160206134e88339815191526044820152606401610ae9565b61132e600061267d565b565b6000546001600160a01b031633146113785760405162461bcd60e51b815260206004820181905260248201526000805160206134e88339815191526044820152606401610ae9565b600e55565b6000546001600160a01b031633146113c55760405162461bcd60e51b815260206004820181905260248201526000805160206134e88339815191526044820152606401610ae9565b600b55565b60408051808201909152600080825260208201526109d7826124b2565b6060600380546109ec90613425565b6001600160a01b03821633141561144f5760405162461bcd60e51b815260206004820152601160248201527f617070726f766520746f2063616c6c65720000000000000000000000000000006044820152606401610ae9565b3360008181526007602090815260408083206001600160a01b03871680855290835292819020805460ff191686151590811790915590519081529192917f17307eab39ab6107e8899845ad3d59bd9653f200f220920489ca2b5937696c31910160405180910390a35050565b6000546001600160a01b031633146115035760405162461bcd60e51b815260206004820181905260248201526000805160206134e88339815191526044820152606401610ae9565b600260095414156115565760405162461bcd60e51b815260206004820152601f60248201527f5265656e7472616e637947756172643a207265656e7472616e742063616c6c006044820152606401610ae9565b6002600955604051600090339047908381818185875af1925050503d806000811461159d576040519150601f19603f3d011682016040523d82523d6000602084013e6115a2565b606091505b5050905080610ccf5760405162461bcd60e51b815260206004820152601060248201527f5472616e73666572206661696c65642e000000000000000000000000000000006044820152606401610ae9565b60115460ff166116315760405162461bcd60e51b81526020600482015260096024820152683737ba103132b3bab760b91b6044820152606401610ae9565b7f00000000000000000000000000000000000000000000000000000000000000008161165c60015490565b6116669190613358565b11156116b45760405162461bcd60e51b815260206004820152601260248201527f72656163686564206d617820737570706c7900000000000000000000000000006044820152606401610ae9565b8060135410156117065760405162461bcd60e51b815260206004820152601260248201527f72656163686564206d617820616d6f756e7400000000000000000000000000006044820152606401610ae9565b7f00000000000000000000000000000000000000000000000000000000000000008111156117765760405162461bcd60e51b815260206004820152601b60248201527f72656163686564206d617820616d6f756e7420706572206d696e7400000000006044820152606401610ae9565b6117803382612494565b806013600082825461179291906133cb565b90915550506012546117ae906117a9908390613384565b6126da565b50565b6000546001600160a01b031633146117f95760405162461bcd60e51b815260206004820181905260248201526000805160206134e88339815191526044820152606401610ae9565b6011805460ff1916911515919091179055565b611817848484611f1d565b61182384848484612768565b6118825760405162461bcd60e51b815260206004820152602a60248201527f7472616e7366657220746f206e6f6e204552433732315265636569766572206960448201526936b83632b6b2b73a32b960b11b6064820152608401610ae9565b50505050565b6000546001600160a01b031633146118d05760405162461bcd60e51b815260206004820181905260248201526000805160206134e88339815191526044820152606401610ae9565b601255565b60606118e2826001541190565b61192e5760405162461bcd60e51b815260206004820152601f60248201527f55524920717565727920666f72206e6f6e6578697374656e7420746f6b656e006044820152606401610ae9565b60006119386128b9565b905060008151116119585760405180602001604052806000815250611983565b80611962846128c8565b604051602001611973929190613287565b6040516020818303038152906040525b9392505050565b600a805461199790613425565b80601f01602080910402602001604051908101604052809291908181526020018280546119c390613425565b8015611a105780601f106119e557610100808354040283529160200191611a10565b820191906000526020600020905b8154815290600101906020018083116119f357829003601f168201915b505050505081565b60006109d782612a16565b600c5460ff16611a615760405162461bcd60e51b81526020600482015260096024820152683737ba103132b3bab760b91b6044820152606401610ae9565b7f000000000000000000000000000000000000000000000000000000000000000082611a8c60015490565b611a969190613358565b1115611ae45760405162461bcd60e51b815260206004820152601260248201527f72656163686564206d617820737570706c7900000000000000000000000000006044820152606401610ae9565b81600d541015611b365760405162461bcd60e51b815260206004820152601260248201527f72656163686564206d617820616d6f756e7400000000000000000000000000006044820152606401610ae9565b6040516bffffffffffffffffffffffff193360601b166020820152600090603401604051602081830303815290604052805190602001209050611b7c82600e5483612ac0565b611bc85760405162461bcd60e51b815260206004820152601560248201527f496e76616c6964204d65726b6c652050726f6f662e00000000000000000000006044820152606401610ae9565b336000908152600f602052604090205460ff16611c2757336000908152600f60209081526040808320805460ff19166001179055601090915290207f000000000000000000000000000000000000000000000000000000000000000090555b33600090815260106020526040902054831115611cac5760405162461bcd60e51b815260206004820152602a60248201527f7265616368656420616c6c6f77206c697374207065722061646472657373206d60448201527f696e7420616d6f756e74000000000000000000000000000000000000000000006064820152608401610ae9565b3360009081526010602052604081208054859290611ccb9084906133cb565b90915550611cdb90503384612494565b82600d6000828254611ced91906133cb565b9091555050600b54610c16906117a9908590613384565b6000546001600160a01b03163314611d4c5760405162461bcd60e51b815260206004820181905260248201526000805160206134e88339815191526044820152606401610ae9565b6001600160a01b038116611dc85760405162461bcd60e51b815260206004820152602660248201527f4f776e61626c653a206e6577206f776e657220697320746865207a65726f206160448201527f64647265737300000000000000000000000000000000000000000000000000006064820152608401610ae9565b6117ae8161267d565b6000546001600160a01b03163314611e195760405162461bcd60e51b815260206004820181905260248201526000805160206134e88339815191526044820152606401610ae9565b7f0000000000000000000000000000000000000000000000000000000000000000811115611eaf5760405162461bcd60e51b815260206004820152603460248201527f416c6c6f774c69737420616d6f756e74206d757374206265206772656174657260448201527f207468616e20636f6c6c656374696f6e53697a650000000000000000000000006064820152608401610ae9565b600d55565b600082815260066020526040808220805473ffffffffffffffffffffffffffffffffffffffff19166001600160a01b0387811691821790925591518593918516917f8c5be1e5ebec7d5bd14f71427d1e84f3dd0314c0f7b2291e5b200ac8c7c3b92591a4505050565b6000611f28826124b2565b80519091506000906001600160a01b0316336001600160a01b03161480611f5f575033611f5484610a6f565b6001600160a01b0316145b80611f7157508151611f71903361088b565b905080611fe65760405162461bcd60e51b815260206004820152602960248201527f7472616e736665722063616c6c6572206973206e6f74206f776e6572206e6f7260448201527f20617070726f76656400000000000000000000000000000000000000000000006064820152608401610ae9565b846001600160a01b031682600001516001600160a01b03161461204b5760405162461bcd60e51b815260206004820152601d60248201527f7472616e736665722066726f6d20696e636f7272656374206f776e65720000006044820152606401610ae9565b6001600160a01b0384166120a15760405162461bcd60e51b815260206004820152601c60248201527f7472616e7366657220746f20746865207a65726f2061646472657373000000006044820152606401610ae9565b6120b16000848460000151611eb4565b6001600160a01b03851660009081526005602052604081208054600192906120e39084906001600160801b03166133a3565b82546101009290920a6001600160801b038181021990931691831602179091556001600160a01b0386166000908152600560205260408120805460019450909261212f91859116613336565b82546001600160801b039182166101009390930a9283029190920219909116179055506040805180820182526001600160a01b03808716825267ffffffffffffffff428116602080850191825260008981526004909152948520935184549151909216600160a01b026001600160e01b031990911691909216171790556121b7846001613358565b6000818152600460205260409020549091506001600160a01b0316612249576121e1816001541190565b156122495760408051808201825284516001600160a01b03908116825260208087015167ffffffffffffffff9081168285019081526000878152600490935294909120925183549451909116600160a01b026001600160e01b03199094169116179190911790555b83856001600160a01b0316876001600160a01b03167fddf252ad1be2c89b69c2b068fc378daa952ba7f163c4a11628f55a4df523b3ef60405160405180910390a45b505050505050565b600854816122e35760405162461bcd60e51b815260206004820152601860248201527f7175616e74697479206d757374206265206e6f6e7a65726f00000000000000006044820152606401610ae9565b600060016122f18484613358565b6122fb91906133cb565b905061232860017f00000000000000000000000000000000000000000000000000000000000000006133cb565b81111561235d5761235a60017f00000000000000000000000000000000000000000000000000000000000000006133cb565b90505b612368816001541190565b6123da5760405162461bcd60e51b815260206004820152602660248201527f6e6f7420656e6f756768206d696e7465642079657420666f722074686973206360448201527f6c65616e757000000000000000000000000000000000000000000000000000006064820152608401610ae9565b815b818111612480576000818152600460205260409020546001600160a01b031661246e57600061240a826124b2565b60408051808201825282516001600160a01b03908116825260209384015167ffffffffffffffff9081168584019081526000888152600490965293909420915182549351909416600160a01b026001600160e01b0319909316931692909217179055505b8061247881613460565b9150506123dc565b5061248c816001613358565b600855505050565b6124ae828260405180602001604052806000815250612ad6565b5050565b60408051808201909152600080825260208201526124d1826001541190565b6125435760405162461bcd60e51b815260206004820152602160248201527f6f776e657220717565727920666f72206e6f6e6578697374656e7420746f6b6560448201527f6e000000000000000000000000000000000000000000000000000000000000006064820152608401610ae9565b60007f000000000000000000000000000000000000000000000000000000000000000083106125a4576125967f0000000000000000000000000000000000000000000000000000000000000000846133cb565b6125a1906001613358565b90505b825b81811061260e576000818152600460209081526040918290208251808401909352546001600160a01b038116808452600160a01b90910467ffffffffffffffff1691830191909152156125fb57949350505050565b50806126068161340e565b9150506125a6565b5060405162461bcd60e51b815260206004820152602660248201527f756e61626c6520746f2064657465726d696e6520746865206f776e6572206f6660448201527f20746f6b656e00000000000000000000000000000000000000000000000000006064820152608401610ae9565b600080546001600160a01b0383811673ffffffffffffffffffffffffffffffffffffffff19831681178455604051919092169283917f8be0079c531659141344cd1fd0a4f28419497f9722a3daafe3b4186f6b6457e09190a35050565b8034101561272a5760405162461bcd60e51b815260206004820152601660248201527f4e65656420746f2073656e64206d6f7265204554482e000000000000000000006044820152606401610ae9565b803411156117ae57336108fc61274083346133cb565b6040518115909202916000818181858888f193505050501580156124ae573d6000803e3d6000fd5b60006001600160a01b0384163b156128ad57604051630a85bd0160e11b81526001600160a01b0385169063150b7a02906127ac9033908990889088906004016132b6565b602060405180830381600087803b1580156127c657600080fd5b505af19250505080156127f6575060408051601f3d908101601f191682019092526127f3918101906130fc565b60015b612893573d808015612824576040519150601f19603f3d011682016040523d82523d6000602084013e612829565b606091505b50805161288b5760405162461bcd60e51b815260206004820152602a60248201527f7472616e7366657220746f206e6f6e204552433732315265636569766572206960448201526936b83632b6b2b73a32b960b11b6064820152608401610ae9565b805181602001fd5b6001600160e01b031916630a85bd0160e11b1490506128b1565b5060015b949350505050565b6060600a80546109ec90613425565b60608161290857505060408051808201909152600181527f3000000000000000000000000000000000000000000000000000000000000000602082015290565b8160005b8115612932578061291c81613460565b915061292b9050600a83613370565b915061290c565b60008167ffffffffffffffff81111561295b57634e487b7160e01b600052604160045260246000fd5b6040519080825280601f01601f191660200182016040528015612985576020820181803683370190505b5090505b84156128b15761299a6001836133cb565b91506129a7600a8661347b565b6129b2906030613358565b60f81b8183815181106129d557634e487b7160e01b600052603260045260246000fd5b60200101907effffffffffffffffffffffffffffffffffffffffffffffffffffffffffffff1916908160001a905350612a0f600a86613370565b9450612989565b60006001600160a01b038216612a945760405162461bcd60e51b815260206004820152602860248201527f6e756d626572206d696e74656420717565727920666f7220746865207a65726f60448201527f20616464726573730000000000000000000000000000000000000000000000006064820152608401610ae9565b506001600160a01b0316600090815260056020526040902054600160801b90046001600160801b031690565b600082612acd8584612ddf565b14949350505050565b6001546001600160a01b038416612b2f5760405162461bcd60e51b815260206004820152601860248201527f6d696e7420746f20746865207a65726f206164647265737300000000000000006044820152606401610ae9565b612b3a816001541190565b15612b875760405162461bcd60e51b815260206004820152601460248201527f746f6b656e20616c7265616479206d696e7465640000000000000000000000006044820152606401610ae9565b7f0000000000000000000000000000000000000000000000000000000000000000831115612bf75760405162461bcd60e51b815260206004820152601960248201527f7175616e7469747920746f206d696e7420746f6f2068696768000000000000006044820152606401610ae9565b6001600160a01b0384166000908152600560209081526040918290208251808401845290546001600160801b038082168352600160801b9091041691810191909152815180830190925280519091908190612c53908790613336565b6001600160801b03168152602001858360200151612c719190613336565b6001600160801b039081169091526001600160a01b0380881660008181526005602090815260408083208751978301518716600160801b0297909616969096179094558451808601865291825267ffffffffffffffff4281168386019081528883526004909552948120915182549451909516600160a01b026001600160e01b031990941694909216939093179190911790915582905b85811015612dd45760405182906001600160a01b038916906000907fddf252ad1be2c89b69c2b068fc378daa952ba7f163c4a11628f55a4df523b3ef908290a4612d556000888488612768565b612db45760405162461bcd60e51b815260206004820152602a60248201527f7472616e7366657220746f206e6f6e204552433732315265636569766572206960448201526936b83632b6b2b73a32b960b11b6064820152608401610ae9565b81612dbe81613460565b9250508080612dcc90613460565b915050612d08565b50600181905561228b565b600081815b8451811015612e59576000858281518110612e0f57634e487b7160e01b600052603260045260246000fd5b60200260200101519050808311612e355760008381526020829052604090209250612e46565b600081815260208490526040902092505b5080612e5181613460565b915050612de4565b509392505050565b828054612e6d90613425565b90600052602060002090601f016020900481019282612e8f5760008555612ed5565b82601f10612ea85782800160ff19823516178555612ed5565b82800160010185558215612ed5579182015b82811115612ed5578235825591602001919060010190612eba565b506110069291505b808211156110065760008155600101612edd565b80356001600160a01b0381168114612f0857600080fd5b919050565b80358015158114612f0857600080fd5b600060208284031215612f2e578081fd5b61198382612ef1565b60008060408385031215612f49578081fd5b612f5283612ef1565b9150612f6060208401612ef1565b90509250929050565b600080600060608486031215612f7d578081fd5b612f8684612ef1565b9250612f9460208501612ef1565b9150604084013590509250925092565b60008060008060808587031215612fb9578081fd5b612fc285612ef1565b93506020612fd1818701612ef1565b935060408601359250606086013567ffffffffffffffff80821115612ff4578384fd5b818801915088601f830112613007578384fd5b813581811115613019576130196134bb565b61302b601f8201601f19168501613305565b91508082528984828501011115613040578485fd5b8084840185840137810190920192909252939692955090935050565b6000806040838503121561306e578182fd5b61307783612ef1565b9150612f6060208401612f0d565b60008060408385031215613097578182fd5b6130a083612ef1565b946020939093013593505050565b6000602082840312156130bf578081fd5b61198382612f0d565b6000602082840312156130d9578081fd5b5035919050565b6000602082840312156130f1578081fd5b8135611983816134d1565b60006020828403121561310d578081fd5b8151611983816134d1565b6000806020838503121561312a578182fd5b823567ffffffffffffffff80821115613141578384fd5b818501915085601f830112613154578384fd5b813581811115613162578485fd5b866020828501011115613173578485fd5b60209290920196919550909350505050565b60008060408385031215613197578182fd5b82359150612f6060208401612ef1565b600080604083850312156131b9578182fd5b8235915060208084013567ffffffffffffffff808211156131d8578384fd5b818601915086601f8301126131eb578384fd5b8135818111156131fd576131fd6134bb565b8060051b915061320e848301613305565b8181528481019084860184860187018b1015613228578788fd5b8795505b8386101561324a57803583526001959095019491860191860161322c565b508096505050505050509250929050565b600081518084526132738160208601602086016133e2565b601f01601f19169290920160200192915050565b600083516132998184602088016133e2565b8351908301906132ad8183602088016133e2565b01949350505050565b60006001600160a01b038087168352808616602084015250836040830152608060608301526132e8608083018461325b565b9695505050505050565b602081526000611983602083018461325b565b604051601f8201601f1916810167ffffffffffffffff8111828210171561332e5761332e6134bb565b604052919050565b60006001600160801b038083168185168083038211156132ad576132ad61348f565b6000821982111561336b5761336b61348f565b500190565b60008261337f5761337f6134a5565b500490565b600081600019048311821515161561339e5761339e61348f565b500290565b60006001600160801b03838116908316818110156133c3576133c361348f565b039392505050565b6000828210156133dd576133dd61348f565b500390565b60005b838110156133fd5781810151838201526020016133e5565b838111156118825750506000910152565b60008161341d5761341d61348f565b506000190190565b600181811c9082168061343957607f821691505b6020821081141561345a57634e487b7160e01b600052602260045260246000fd5b50919050565b60006000198214156134745761347461348f565b5060010190565b60008261348a5761348a6134a5565b500690565b634e487b7160e01b600052601160045260246000fd5b634e487b7160e01b600052601260045260246000fd5b634e487b7160e01b600052604160045260246000fd5b6001600160e01b0319811681146117ae57600080fdfe4f776e61626c653a2063616c6c6572206973206e6f7420746865206f776e6572a264697066735822122045f8e2b26fefdcac8c5a8ad2c35f34e25beb03af0b0aedb7139c4bd81b1e12d764736f6c63430008040033",
  "linkReferences": {},
  "deployedLinkReferences": {}
}