{
  "_format": "hh-sol-artifact-1",
  "contractName": "Rzuki",
  "sourceName": "contracts/Rzuki.sol",
  "abi": [
    {
      "inputs": [
        {
          "internalType": "string",
          "name": "initBaseURI",
          "type": "string"
        }
      ],
      "stateMutability": "nonpayable",
      "type": "constructor"
    },
    {
      "anonymous": false,
      "inputs": [
        {
          "indexed": true,
          "internalType": "address",
          "name": "owner",
          "type": "address"
        },
        {
          "indexed": true,
          "internalType": "address",
          "name": "approved",
          "type": "address"
        },
        {
          "indexed": true,
          "internalType": "uint256",
          "name": "tokenId",
          "type": "uint256"
        }
      ],
      "name": "Approval",
      "type": "event"
    },
    {
      "anonymous": false,
      "inputs": [
        {
          "indexed": true,
          "internalType": "address",
          "name": "owner",
          "type": "address"
        },
        {
          "indexed": true,
          "internalType": "address",
          "name": "operator",
          "type": "address"
        },
        {
          "indexed": false,
          "internalType": "bool",
          "name": "approved",
          "type": "bool"
        }
      ],
      "name": "ApprovalForAll",
      "type": "event"
    },
    {
      "anonymous": false,
      "inputs": [
        {
          "indexed": true,
          "internalType": "address",
          "name": "previousOwner",
          "type": "address"
        },
        {
          "indexed": true,
          "internalType": "address",
          "name": "newOwner",
          "type": "address"
        }
      ],
      "name": "OwnershipTransferred",
      "type": "event"
    },
    {
      "anonymous": false,
      "inputs": [
        {
          "indexed": true,
          "internalType": "address",
          "name": "from",
          "type": "address"
        },
        {
          "indexed": true,
          "internalType": "address",
          "name": "to",
          "type": "address"
        },
        {
          "indexed": true,
          "internalType": "uint256",
          "name": "tokenId",
          "type": "uint256"
        }
      ],
      "name": "Transfer",
      "type": "event"
    },
    {
      "inputs": [
        {
          "internalType": "address",
          "name": "",
          "type": "address"
        }
      ],
      "name": "allowListAppeared",
      "outputs": [
        {
          "internalType": "bool",
          "name": "",
          "type": "bool"
        }
      ],
      "stateMutability": "view",
      "type": "function"
    },
    {
      "inputs": [
        {
          "internalType": "uint256",
          "name": "quantity",
          "type": "uint256"
        },
        {
          "internalType": "bytes32[]",
          "name": "proof",
          "type": "bytes32[]"
        }
      ],
      "name": "allowListMint",
      "outputs": [],
      "stateMutability": "payable",
      "type": "function"
    },
    {
      "inputs": [],
      "name": "allowListMintAmount",
      "outputs": [
        {
          "internalType": "uint256",
          "name": "",
          "type": "uint256"
        }
      ],
      "stateMutability": "view",
      "type": "function"
    },
    {
      "inputs": [],
      "name": "allowListMintPrice",
      "outputs": [
        {
          "internalType": "uint256",
          "name": "",
          "type": "uint256"
        }
      ],
      "stateMutability": "view",
      "type": "function"
    },
    {
      "inputs": [],
      "name": "allowListStatus",
      "outputs": [
        {
          "internalType": "bool",
          "name": "",
          "type": "bool"
        }
      ],
      "stateMutability": "view",
      "type": "function"
    },
    {
      "inputs": [
        {
          "internalType": "address",
          "name": "",
          "type": "address"
        }
      ],
      "name": "allowListStock",
      "outputs": [
        {
          "internalType": "uint256",
          "name": "",
          "type": "uint256"
        }
      ],
      "stateMutability": "view",
      "type": "function"
    },
    {
      "inputs": [],
      "name": "amountForPublicSale",
      "outputs": [
        {
          "internalType": "uint256",
          "name": "",
          "type": "uint256"
        }
      ],
      "stateMutability": "view",
      "type": "function"
    },
    {
      "inputs": [
        {
          "internalType": "address",
          "name": "to",
          "type": "address"
        },
        {
          "internalType": "uint256",
          "name": "tokenId",
          "type": "uint256"
        }
      ],
      "name": "approve",
      "outputs": [],
      "stateMutability": "nonpayable",
      "type": "function"
    },
    {
      "inputs": [
        {
          "internalType": "address",
          "name": "owner",
          "type": "address"
        }
      ],
      "name": "balanceOf",
      "outputs": [
        {
          "internalType": "uint256",
          "name": "",
          "type": "uint256"
        }
      ],
      "stateMutability": "view",
      "type": "function"
    },
    {
      "inputs": [],
      "name": "baseTokenURI",
      "outputs": [
        {
          "internalType": "string",
          "name": "",
          "type": "string"
        }
      ],
      "stateMutability": "view",
      "type": "function"
    },
    {
      "inputs": [
        {
          "internalType": "address",
          "name": "",
          "type": "address"
        }
      ],
      "name": "freeAppeared",
      "outputs": [
        {
          "internalType": "bool",
          "name": "",
          "type": "bool"
        }
      ],
      "stateMutability": "view",
      "type": "function"
    },
    {
      "inputs": [
        {
          "internalType": "uint256",
          "name": "quantity",
          "type": "uint256"
        }
      ],
      "name": "freeMint",
      "outputs": [],
      "stateMutability": "payable",
      "type": "function"
    },
    {
      "inputs": [],
      "name": "freeMintAmount",
      "outputs": [
        {
          "internalType": "uint256",
          "name": "",
          "type": "uint256"
        }
      ],
      "stateMutability": "view",
      "type": "function"
    },
    {
      "inputs": [],
      "name": "freeMintStatus",
      "outputs": [
        {
          "internalType": "bool",
          "name": "",
          "type": "bool"
        }
      ],
      "stateMutability": "view",
      "type": "function"
    },
    {
      "inputs": [
        {
          "internalType": "address",
          "name": "",
          "type": "address"
        }
      ],
      "name": "freeStock",
      "outputs": [
        {
          "internalType": "uint256",
          "name": "",
          "type": "uint256"
        }
      ],
      "stateMutability": "view",
      "type": "function"
    },
    {
      "inputs": [
        {
          "internalType": "uint256",
          "name": "tokenId",
          "type": "uint256"
        }
      ],
      "name": "getApproved",
      "outputs": [
        {
          "internalType": "address",
          "name": "",
          "type": "address"
        }
      ],
      "stateMutability": "view",
      "type": "function"
    },
    {
      "inputs": [
        {
          "internalType": "uint256",
          "name": "tokenId",
          "type": "uint256"
        }
      ],
      "name": "getOwnershipData",
      "outputs": [
        {
          "components": [
            {
              "internalType": "address",
              "name": "addr",
              "type": "address"
            },
            {
              "internalType": "uint64",
              "name": "startTimestamp",
              "type": "uint64"
            }
          ],
          "internalType": "struct ERC721A.TokenOwnership",
          "name": "",
          "type": "tuple"
        }
      ],
      "stateMutability": "view",
      "type": "function"
    },
    {
      "inputs": [
        {
          "internalType": "address",
          "name": "owner",
          "type": "address"
        },
        {
          "internalType": "address",
          "name": "operator",
          "type": "address"
        }
      ],
      "name": "isApprovedForAll",
      "outputs": [
        {
          "internalType": "bool",
          "name": "",
          "type": "bool"
        }
      ],
      "stateMutability": "view",
      "type": "function"
    },
    {
      "inputs": [],
      "name": "maxFreeMint",
      "outputs": [
        {
          "internalType": "uint256",
          "name": "",
          "type": "uint256"
        }
      ],
      "stateMutability": "view",
      "type": "function"
    },
    {
      "inputs": [],
      "name": "maxPerAddressDuringMint",
      "outputs": [
        {
          "internalType": "uint256",
          "name": "",
          "type": "uint256"
        }
      ],
      "stateMutability": "view",
      "type": "function"
    },
    {
      "inputs": [],
      "name": "name",
      "outputs": [
        {
          "internalType": "string",
          "name": "",
          "type": "string"
        }
      ],
      "stateMutability": "view",
      "type": "function"
    },
    {
      "inputs": [],
      "name": "nextOwnerToExplicitlySet",
      "outputs": [
        {
          "internalType": "uint256",
          "name": "",
          "type": "uint256"
        }
      ],
      "stateMutability": "view",
      "type": "function"
    },
    {
      "inputs": [
        {
          "internalType": "address",
          "name": "owner",
          "type": "address"
        }
      ],
      "name": "numberMinted",
      "outputs": [
        {
          "internalType": "uint256",
          "name": "",
          "type": "uint256"
        }
      ],
      "stateMutability": "view",
      "type": "function"
    },
    {
      "inputs": [],
      "name": "owner",
      "outputs": [
        {
          "internalType": "address",
          "name": "",
          "type": "address"
        }
      ],
      "stateMutability": "view",
      "type": "function"
    },
    {
      "inputs": [
        {
          "internalType": "uint256",
          "name": "tokenId",
          "type": "uint256"
        }
      ],
      "name": "ownerOf",
      "outputs": [
        {
          "internalType": "address",
          "name": "",
          "type": "address"
        }
      ],
      "stateMutability": "view",
      "type": "function"
    },
    {
      "inputs": [],
      "name": "publicPrice",
      "outputs": [
        {
          "internalType": "uint256",
          "name": "",
          "type": "uint256"
        }
      ],
      "stateMutability": "view",
      "type": "function"
    },
    {
      "inputs": [
        {
          "internalType": "uint256",
          "name": "quantity",
          "type": "uint256"
        }
      ],
      "name": "publicSaleMint",
      "outputs": [],
      "stateMutability": "payable",
      "type": "function"
    },
    {
      "inputs": [],
      "name": "publicSalePerMint",
      "outputs": [
        {
          "internalType": "uint256",
          "name": "",
          "type": "uint256"
        }
      ],
      "stateMutability": "view",
      "type": "function"
    },
    {
      "inputs": [],
      "name": "publicSaleStatus",
      "outputs": [
        {
          "internalType": "bool",
          "name": "",
          "type": "bool"
        }
      ],
      "stateMutability": "view",
      "type": "function"
    },
    {
      "inputs": [],
      "name": "renounceOwnership",
      "outputs": [],
      "stateMutability": "nonpayable",
      "type": "function"
    },
    {
      "inputs": [
        {
          "internalType": "uint256",
          "name": "quantity",
          "type": "uint256"
        },
        {
          "internalType": "address",
          "name": "to",
          "type": "address"
        }
      ],
      "name": "reserveMint",
      "outputs": [],
      "stateMutability": "nonpayable",
      "type": "function"
    },
    {
      "inputs": [
        {
          "internalType": "address",
          "name": "from",
          "type": "address"
        },
        {
          "internalType": "address",
          "name": "to",
          "type": "address"
        },
        {
          "internalType": "uint256",
          "name": "tokenId",
          "type": "uint256"
        }
      ],
      "name": "safeTransferFrom",
      "outputs": [],
      "stateMutability": "nonpayable",
      "type": "function"
    },
    {
      "inputs": [
        {
          "internalType": "address",
          "name": "from",
          "type": "address"
        },
        {
          "internalType": "address",
          "name": "to",
          "type": "address"
        },
        {
          "internalType": "uint256",
          "name": "tokenId",
          "type": "uint256"
        },
        {
          "internalType": "bytes",
          "name": "_data",
          "type": "bytes"
        }
      ],
      "name": "safeTransferFrom",
      "outputs": [],
      "stateMutability": "nonpayable",
      "type": "function"
    },
    {
      "inputs": [
        {
          "internalType": "uint256",
          "name": "newAllowListMintPrice",
          "type": "uint256"
        }
      ],
      "name": "setAllowListMintPrice",
      "outputs": [],
      "stateMutability": "nonpayable",
      "type": "function"
    },
    {
      "inputs": [
        {
          "internalType": "bool",
          "name": "status",
          "type": "bool"
        }
      ],
      "name": "setAllowListStatus",
      "outputs": [],
      "stateMutability": "nonpayable",
      "type": "function"
    },
    {
      "inputs": [
        {
          "internalType": "address",
          "name": "operator",
          "type": "address"
        },
        {
          "internalType": "bool",
          "name": "approved",
          "type": "bool"
        }
      ],
      "name": "setApprovalForAll",
      "outputs": [],
      "stateMutability": "nonpayable",
      "type": "function"
    },
    {
      "inputs": [
        {
          "internalType": "string",
          "name": "baseURI",
          "type": "string"
        }
      ],
      "name": "setBaseURI",
      "outputs": [],
      "stateMutability": "nonpayable",
      "type": "function"
    },
    {
      "inputs": [
        {
          "internalType": "bool",
          "name": "newFreeMintStatus",
          "type": "bool"
        }
      ],
      "name": "setFreeMintStatus",
      "outputs": [],
      "stateMutability": "nonpayable",
      "type": "function"
    },
    {
      "inputs": [
        {
          "internalType": "bytes32",
          "name": "newMerkleRoot",
          "type": "bytes32"
        }
      ],
      "name": "setMerkleRoot",
      "outputs": [],
      "stateMutability": "nonpayable",
      "type": "function"
    },
    {
      "inputs": [
        {
          "internalType": "uint256",
          "name": "quantity",
          "type": "uint256"
        }
      ],
      "name": "setOwnersExplicit",
      "outputs": [],
      "stateMutability": "nonpayable",
      "type": "function"
    },
    {
      "inputs": [
        {
          "internalType": "uint256",
          "name": "newPublicPrice",
          "type": "uint256"
        }
      ],
      "name": "setPublicPrice",
      "outputs": [],
      "stateMutability": "nonpayable",
      "type": "function"
    },
    {
      "inputs": [
        {
          "internalType": "bool",
          "name": "newPublicSaleStatus",
          "type": "bool"
        }
      ],
      "name": "setPublicSaleStatus",
      "outputs": [],
      "stateMutability": "nonpayable",
      "type": "function"
    },
    {
      "inputs": [
        {
          "internalType": "bytes4",
          "name": "interfaceId",
          "type": "bytes4"
        }
      ],
      "name": "supportsInterface",
      "outputs": [
        {
          "internalType": "bool",
          "name": "",
          "type": "bool"
        }
      ],
      "stateMutability": "view",
      "type": "function"
    },
    {
      "inputs": [],
      "name": "symbol",
      "outputs": [
        {
          "internalType": "string",
          "name": "",
          "type": "string"
        }
      ],
      "stateMutability": "view",
      "type": "function"
    },
    {
      "inputs": [
        {
          "internalType": "uint256",
          "name": "index",
          "type": "uint256"
        }
      ],
      "name": "tokenByIndex",
      "outputs": [
        {
          "internalType": "uint256",
          "name": "",
          "type": "uint256"
        }
      ],
      "stateMutability": "view",
      "type": "function"
    },
    {
      "inputs": [
        {
          "internalType": "address",
          "name": "owner",
          "type": "address"
        },
        {
          "internalType": "uint256",
          "name": "index",
          "type": "uint256"
        }
      ],
      "name": "tokenOfOwnerByIndex",
      "outputs": [
        {
          "internalType": "uint256",
          "name": "",
          "type": "uint256"
        }
      ],
      "stateMutability": "view",
      "type": "function"
    },
    {
      "inputs": [
        {
          "internalType": "uint256",
          "name": "tokenId",
          "type": "uint256"
        }
      ],
      "name": "tokenURI",
      "outputs": [
        {
          "internalType": "string",
          "name": "",
          "type": "string"
        }
      ],
      "stateMutability": "view",
      "type": "function"
    },
    {
      "inputs": [],
      "name": "totalSupply",
      "outputs": [
        {
          "internalType": "uint256",
          "name": "",
          "type": "uint256"
        }
      ],
      "stateMutability": "view",
      "type": "function"
    },
    {
      "inputs": [
        {
          "internalType": "address",
          "name": "from",
          "type": "address"
        },
        {
          "internalType": "address",
          "name": "to",
          "type": "address"
        },
        {
          "internalType": "uint256",
          "name": "tokenId",
          "type": "uint256"
        }
      ],
      "name": "transferFrom",
      "outputs": [],
      "stateMutability": "nonpayable",
      "type": "function"
    },
    {
      "inputs": [
        {
          "internalType": "address",
          "name": "newOwner",
          "type": "address"
        }
      ],
      "name": "transferOwnership",
      "outputs": [],
      "stateMutability": "nonpayable",
      "type": "function"
    },
    {
      "inputs": [],
      "name": "withdrawMoney",
      "outputs": [],
      "stateMutability": "nonpayable",
      "type": "function"
    }
  ],
  "bytecode": "0x6101206040526000600181905560085566038d7ea4c68000600b55600c805460ff19908116909155610378600d819055600260c08190526011805484169055660e35fa931a00006012556103e8601355600560e05260148054909316909255601555610100523480156200007257600080fd5b5060405162003bf838038062003bf88339810160408190526200009591620002f7565b60405180604001604052806005815260200164527a756b6960d81b81525060405180604001604052806003815260200162525a4b60e81b8152506032610760620000ee620000e8620001fd60201b60201c565b62000201565b60008111620001525760405162461bcd60e51b815260206004820152602560248201527f636f6c6c656374696f6e206d75737420686176652061206e6f6e7a65726f20736044820152647570706c7960d81b60648201526084015b60405180910390fd5b60008211620001a45760405162461bcd60e51b815260206004820152601e60248201527f6d61782062617463682073697a65206d757374206265206e6f6e7a65726f0000604482015260640162000149565b8351620001b990600290602087019062000251565b508251620001cf90600390602086019062000251565b5060a091909152608052505060016009558051620001f590600a90602084019062000251565b505062000420565b3390565b600080546001600160a01b038381166001600160a01b0319831681178455604051919092169283917f8be0079c531659141344cd1fd0a4f28419497f9722a3daafe3b4186f6b6457e09190a35050565b8280546200025f90620003cd565b90600052602060002090601f016020900481019282620002835760008555620002ce565b82601f106200029e57805160ff1916838001178555620002ce565b82800160010185558215620002ce579182015b82811115620002ce578251825591602001919060010190620002b1565b50620002dc929150620002e0565b5090565b5b80821115620002dc5760008155600101620002e1565b600060208083850312156200030a578182fd5b82516001600160401b038082111562000321578384fd5b818501915085601f83011262000335578384fd5b8151818111156200034a576200034a6200040a565b604051601f8201601f19908116603f011681019083821181831017156200037557620003756200040a565b8160405282815288868487010111156200038d578687fd5b8693505b82841015620003b0578484018601518185018701529285019262000391565b82841115620003c157868684830101525b98975050505050505050565b600181811c90821680620003e257607f821691505b602082108114156200040457634e487b7160e01b600052602260045260246000fd5b50919050565b634e487b7160e01b600052604160045260246000fd5b60805160a05160c05160e0516101005161372a620004ce600039600081816107590152818161143701526114e20152600081816104e2015261199301526000818161066e0152611ed501526000818161115e01528181611196015281816111d201528181611205015281816127340152818161275e0152612d760152600081816110b001528181611378015281816118d401528181611d49015281816124f10152612523015261372a6000f3fe6080604052600436106103345760003560e01c80638da5cb5b116101b0578063bab44225116100ec578063d9c0f6b611610095578063e985e9c51161006f578063e985e9c514610961578063ec8bda8e146109aa578063f2fde38b146109bd578063fa6c6a57146109dd57600080fd5b8063d9c0f6b6146108f1578063dc33e68114610911578063e1ab4f681461093157600080fd5b8063cae3a207116100c6578063cae3a20714610896578063d547cfb7146108c6578063d7224ba0146108db57600080fd5b8063bab4422514610840578063c627525514610856578063c87b56dd1461087657600080fd5b8063a5b214ad11610159578063b3ab66b011610133578063b3ab66b0146107d3578063b423fe67146107e6578063b6c693e514610806578063b88d4fde1461082057600080fd5b8063a5b214ad1461077b578063a945bf80146107a8578063ac446002146107be57600080fd5b80639dc74e631161018a5780639dc74e6314610711578063a22cb46514610727578063a591252d1461074757600080fd5b80638da5cb5b146106905780639231ab2a146106ae57806395d89b41146106fc57600080fd5b806342842e0e1161027f57806370a08231116102285780637cb64759116102025780637cb6475914610602578063802751ca14610622578063852845731461063c5780638bc35c2f1461065c57600080fd5b806370a08231146105ba578063715018a6146105da5780637c928fe9146105ef57600080fd5b806360b02f701161025957806360b02f70146105645780636352211e1461058457806368855b64146105a457600080fd5b806342842e0e146105045780634f6ccce71461052457806355f804b31461054457600080fd5b806323b872dd116102e1578063300bc3a1116102bb578063300bc3a11461049a5780633a467e3d146104ba5780633ba5ae24146104d057600080fd5b806323b872dd1461043a5780632d20fb601461045a5780632f745c591461047a57600080fd5b8063081812fc11610312578063081812fc146103cb578063095ea7b31461040357806318160ddd1461042557600080fd5b806301ffc9a714610339578063050c8ffc1461036e57806306fdde03146103a9575b600080fd5b34801561034557600080fd5b506103596103543660046132cd565b6109f7565b60405190151581526020015b60405180910390f35b34801561037a57600080fd5b5061039b61038936600461310a565b60106020526000908152604090205481565b604051908152602001610365565b3480156103b557600080fd5b506103be610ac8565b60405161036591906134df565b3480156103d757600080fd5b506103eb6103e63660046132b5565b610b5a565b6040516001600160a01b039091168152602001610365565b34801561040f57600080fd5b5061042361041e366004613272565b610bf9565b005b34801561043157600080fd5b5060015461039b565b34801561044657600080fd5b50610423610455366004613156565b610d06565b34801561046657600080fd5b506104236104753660046132b5565b610d11565b34801561048657600080fd5b5061039b610495366004613272565b610dc2565b3480156104a657600080fd5b506104236104b536600461329b565b610f3f565b3480156104c657600080fd5b5061039b60155481565b3480156104dc57600080fd5b5061039b7f000000000000000000000000000000000000000000000000000000000000000081565b34801561051057600080fd5b5061042361051f366004613156565b610f9a565b34801561053057600080fd5b5061039b61053f3660046132b5565b610fb5565b34801561055057600080fd5b5061042361055f366004613305565b611012565b34801561057057600080fd5b5061042361057f366004613372565b611066565b34801561059057600080fd5b506103eb61059f3660046132b5565b61122f565b3480156105b057600080fd5b5061039b600b5481565b3480156105c657600080fd5b5061039b6105d536600461310a565b611241565b3480156105e657600080fd5b506104236112e4565b6104236105fd3660046132b5565b611338565b34801561060e57600080fd5b5061042361061d3660046132b5565b6115d1565b34801561062e57600080fd5b50600c546103599060ff1681565b34801561064857600080fd5b506104236106573660046132b5565b61161e565b34801561066857600080fd5b5061039b7f000000000000000000000000000000000000000000000000000000000000000081565b34801561069c57600080fd5b506000546001600160a01b03166103eb565b3480156106ba57600080fd5b506106ce6106c93660046132b5565b61166b565b6040805182516001600160a01b0316815260209283015167ffffffffffffffff169281019290925201610365565b34801561070857600080fd5b506103be611688565b34801561071d57600080fd5b5061039b60135481565b34801561073357600080fd5b50610423610742366004613249565b611697565b34801561075357600080fd5b5061039b7f000000000000000000000000000000000000000000000000000000000000000081565b34801561078757600080fd5b5061039b61079636600461310a565b60166020526000908152604090205481565b3480156107b457600080fd5b5061039b60125481565b3480156107ca57600080fd5b5061042361175c565b6104236107e13660046132b5565b611894565b3480156107f257600080fd5b5061042361080136600461329b565b611a3c565b34801561081257600080fd5b506011546103599060ff1681565b34801561082c57600080fd5b5061042361083b366004613191565b611a97565b34801561084c57600080fd5b5061039b600d5481565b34801561086257600080fd5b506104236108713660046132b5565b611b13565b34801561088257600080fd5b506103be6108913660046132b5565b611b60565b3480156108a257600080fd5b506103596108b136600461310a565b60176020526000908152604090205460ff1681565b3480156108d257600080fd5b506103be611c15565b3480156108e757600080fd5b5061039b60085481565b3480156108fd57600080fd5b5061042361090c36600461329b565b611ca3565b34801561091d57600080fd5b5061039b61092c36600461310a565b611cfe565b34801561093d57600080fd5b5061035961094c36600461310a565b600f6020526000908152604090205460ff1681565b34801561096d57600080fd5b5061035961097c366004613124565b6001600160a01b03918216600090815260076020908152604080832093909416825291909152205460ff1690565b6104236109b8366004613394565b611d09565b3480156109c957600080fd5b506104236109d836600461310a565b611fd4565b3480156109e957600080fd5b506014546103599060ff1681565b60006001600160e01b031982167f80ac58cd000000000000000000000000000000000000000000000000000000001480610a5a57506001600160e01b031982167f5b5e139f00000000000000000000000000000000000000000000000000000000145b80610a8e57506001600160e01b031982167f780e9d6300000000000000000000000000000000000000000000000000000000145b80610ac257507f01ffc9a7000000000000000000000000000000000000000000000000000000006001600160e01b03198316145b92915050565b606060028054610ad790613612565b80601f0160208091040260200160405190810160405280929190818152602001828054610b0390613612565b8015610b505780601f10610b2557610100808354040283529160200191610b50565b820191906000526020600020905b815481529060010190602001808311610b3357829003601f168201915b5050505050905090565b6000610b67826001541190565b610bdd5760405162461bcd60e51b8152602060048201526024808201527f617070726f76656420717565727920666f72206e6f6e6578697374656e74207460448201527f6f6b656e0000000000000000000000000000000000000000000000000000000060648201526084015b60405180910390fd5b506000908152600660205260409020546001600160a01b031690565b6000610c048261122f565b9050806001600160a01b0316836001600160a01b03161415610c685760405162461bcd60e51b815260206004820152601960248201527f617070726f76616c20746f2063757272656e74206f776e6572000000000000006044820152606401610bd4565b336001600160a01b0382161480610c845750610c84813361097c565b610cf65760405162461bcd60e51b815260206004820152603060248201527f617070726f76652063616c6c6572206973206e6f74206f776e6572206e6f722060448201527f617070726f76656420666f7220616c6c000000000000000000000000000000006064820152608401610bd4565b610d018383836120a1565b505050565b610d0183838361210a565b6000546001600160a01b03163314610d595760405162461bcd60e51b815260206004820181905260248201526000805160206136d58339815191526044820152606401610bd4565b60026009541415610dac5760405162461bcd60e51b815260206004820152601f60248201527f5265656e7472616e637947756172643a207265656e7472616e742063616c6c006044820152606401610bd4565b6002600955610dba81612480565b506001600955565b6000610dcd83611241565b8210610e1b5760405162461bcd60e51b815260206004820152601960248201527f6f776e657220696e646578206f7574206f6620626f756e6473000000000000006044820152606401610bd4565b6000610e2660015490565b905060008060005b83811015610ed0576000818152600460209081526040918290208251808401909352546001600160a01b038116808452600160a01b90910467ffffffffffffffff169183019190915215610e8157805192505b876001600160a01b0316836001600160a01b03161415610ebd5786841415610eaf57509350610ac292505050565b83610eb98161364d565b9450505b5080610ec88161364d565b915050610e2e565b5060405162461bcd60e51b815260206004820152602560248201527f756e61626c6520746f2067657420746f6b656e206f66206f776e65722062792060448201527f696e6465780000000000000000000000000000000000000000000000000000006064820152608401610bd4565b6000546001600160a01b03163314610f875760405162461bcd60e51b815260206004820181905260248201526000805160206136d58339815191526044820152606401610bd4565b600c805460ff1916911515919091179055565b610d0183838360405180602001604052806000815250611a97565b6000610fc060015490565b821061100e5760405162461bcd60e51b815260206004820152601a60248201527f676c6f62616c20696e646578206f7574206f6620626f756e64730000000000006044820152606401610bd4565b5090565b6000546001600160a01b0316331461105a5760405162461bcd60e51b815260206004820181905260248201526000805160206136d58339815191526044820152606401610bd4565b610d01600a838361304e565b6000546001600160a01b031633146110ae5760405162461bcd60e51b815260206004820181905260248201526000805160206136d58339815191526044820152606401610bd4565b7f0000000000000000000000000000000000000000000000000000000000000000826110d960015490565b6110e39190613545565b11156111575760405162461bcd60e51b815260206004820152602760248201527f746f6f206d616e7920616c7265616479206d696e746564206265666f7265206460448201527f6576206d696e74000000000000000000000000000000000000000000000000006064820152608401610bd4565b60006111837f00000000000000000000000000000000000000000000000000000000000000008461355d565b905060005b818110156111cc576111ba837f0000000000000000000000000000000000000000000000000000000000000000612681565b806111c48161364d565b915050611188565b506111f77f000000000000000000000000000000000000000000000000000000000000000084613668565b15610d0157610d018261122a7f000000000000000000000000000000000000000000000000000000000000000086613668565b612681565b600061123a8261269f565b5192915050565b60006001600160a01b0382166112bf5760405162461bcd60e51b815260206004820152602260248201527f62616c616e636520717565727920666f7220746865207a65726f20616464726560448201527f73730000000000000000000000000000000000000000000000000000000000006064820152608401610bd4565b506001600160a01b03166000908152600560205260409020546001600160801b031690565b6000546001600160a01b0316331461132c5760405162461bcd60e51b815260206004820181905260248201526000805160206136d58339815191526044820152606401610bd4565b611336600061286a565b565b60145460ff166113765760405162461bcd60e51b81526020600482015260096024820152683737ba103132b3bab760b91b6044820152606401610bd4565b7f0000000000000000000000000000000000000000000000000000000000000000816113a160015490565b6113ab9190613545565b11156113ee5760405162461bcd60e51b815260206004820152601260248201527172656163686564206d617820737570706c7960701b6044820152606401610bd4565b8060155410156114355760405162461bcd60e51b81526020600482015260126024820152711c995858da1959081b585e08185b5bdd5b9d60721b6044820152606401610bd4565b7f00000000000000000000000000000000000000000000000000000000000000008111156114a55760405162461bcd60e51b815260206004820152601b60248201527f72656163686564206d617820616d6f756e7420706572206d696e7400000000006044820152606401610bd4565b3360009081526017602052604090205460ff1661150457336000908152601760209081526040808320805460ff19166001179055601690915290207f000000000000000000000000000000000000000000000000000000000000000090555b336000908152601660205260409020548111156115885760405162461bcd60e51b8152602060048201526024808201527f726561636865642066726565207065722061646472657373206d696e7420616d60448201527f6f756e74000000000000000000000000000000000000000000000000000000006064820152608401610bd4565b33600090815260166020526040812080548392906115a79084906135b8565b909155506115b790503382612681565b80601560008282546115c991906135b8565b909155505050565b6000546001600160a01b031633146116195760405162461bcd60e51b815260206004820181905260248201526000805160206136d58339815191526044820152606401610bd4565b600e55565b6000546001600160a01b031633146116665760405162461bcd60e51b815260206004820181905260248201526000805160206136d58339815191526044820152606401610bd4565b600b55565b6040805180820190915260008082526020820152610ac28261269f565b606060038054610ad790613612565b6001600160a01b0382163314156116f05760405162461bcd60e51b815260206004820152601160248201527f617070726f766520746f2063616c6c65720000000000000000000000000000006044820152606401610bd4565b3360008181526007602090815260408083206001600160a01b03871680855290835292819020805460ff191686151590811790915590519081529192917f17307eab39ab6107e8899845ad3d59bd9653f200f220920489ca2b5937696c31910160405180910390a35050565b6000546001600160a01b031633146117a45760405162461bcd60e51b815260206004820181905260248201526000805160206136d58339815191526044820152606401610bd4565b600260095414156117f75760405162461bcd60e51b815260206004820152601f60248201527f5265656e7472616e637947756172643a207265656e7472616e742063616c6c006044820152606401610bd4565b6002600955604051600090339047908381818185875af1925050503d806000811461183e576040519150601f19603f3d011682016040523d82523d6000602084013e611843565b606091505b5050905080610dba5760405162461bcd60e51b815260206004820152601060248201527f5472616e73666572206661696c65642e000000000000000000000000000000006044820152606401610bd4565b60115460ff166118d25760405162461bcd60e51b81526020600482015260096024820152683737ba103132b3bab760b91b6044820152606401610bd4565b7f0000000000000000000000000000000000000000000000000000000000000000816118fd60015490565b6119079190613545565b111561194a5760405162461bcd60e51b815260206004820152601260248201527172656163686564206d617820737570706c7960701b6044820152606401610bd4565b8060135410156119915760405162461bcd60e51b81526020600482015260126024820152711c995858da1959081b585e08185b5bdd5b9d60721b6044820152606401610bd4565b7f0000000000000000000000000000000000000000000000000000000000000000811115611a015760405162461bcd60e51b815260206004820152601b60248201527f72656163686564206d617820616d6f756e7420706572206d696e7400000000006044820152606401610bd4565b611a0b3382612681565b8060136000828254611a1d91906135b8565b9091555050601254611a3990611a34908390613571565b6128c7565b50565b6000546001600160a01b03163314611a845760405162461bcd60e51b815260206004820181905260248201526000805160206136d58339815191526044820152606401610bd4565b6011805460ff1916911515919091179055565b611aa284848461210a565b611aae84848484612955565b611b0d5760405162461bcd60e51b815260206004820152602a60248201527f7472616e7366657220746f206e6f6e204552433732315265636569766572206960448201526936b83632b6b2b73a32b960b11b6064820152608401610bd4565b50505050565b6000546001600160a01b03163314611b5b5760405162461bcd60e51b815260206004820181905260248201526000805160206136d58339815191526044820152606401610bd4565b601255565b6060611b6d826001541190565b611bb95760405162461bcd60e51b815260206004820152601f60248201527f55524920717565727920666f72206e6f6e6578697374656e7420746f6b656e006044820152606401610bd4565b6000611bc3612aa6565b90506000815111611be35760405180602001604052806000815250611c0e565b80611bed84612ab5565b604051602001611bfe929190613474565b6040516020818303038152906040525b9392505050565b600a8054611c2290613612565b80601f0160208091040260200160405190810160405280929190818152602001828054611c4e90613612565b8015611c9b5780601f10611c7057610100808354040283529160200191611c9b565b820191906000526020600020905b815481529060010190602001808311611c7e57829003601f168201915b505050505081565b6000546001600160a01b03163314611ceb5760405162461bcd60e51b815260206004820181905260248201526000805160206136d58339815191526044820152606401610bd4565b6014805460ff1916911515919091179055565b6000610ac282612c03565b600c5460ff16611d475760405162461bcd60e51b81526020600482015260096024820152683737ba103132b3bab760b91b6044820152606401610bd4565b7f000000000000000000000000000000000000000000000000000000000000000082611d7260015490565b611d7c9190613545565b1115611dbf5760405162461bcd60e51b815260206004820152601260248201527172656163686564206d617820737570706c7960701b6044820152606401610bd4565b81600d541015611e065760405162461bcd60e51b81526020600482015260126024820152711c995858da1959081b585e08185b5bdd5b9d60721b6044820152606401610bd4565b6040516bffffffffffffffffffffffff193360601b166020820152600090603401604051602081830303815290604052805190602001209050611e4c82600e5483612cad565b611e985760405162461bcd60e51b815260206004820152601560248201527f496e76616c6964204d65726b6c652050726f6f662e00000000000000000000006044820152606401610bd4565b336000908152600f602052604090205460ff16611ef757336000908152600f60209081526040808320805460ff19166001179055601090915290207f000000000000000000000000000000000000000000000000000000000000000090555b33600090815260106020526040902054831115611f7c5760405162461bcd60e51b815260206004820152602a60248201527f7265616368656420616c6c6f77206c697374207065722061646472657373206d60448201527f696e7420616d6f756e74000000000000000000000000000000000000000000006064820152608401610bd4565b3360009081526010602052604081208054859290611f9b9084906135b8565b90915550611fab90503384612681565b82600d6000828254611fbd91906135b8565b9091555050600b54610d0190611a34908590613571565b6000546001600160a01b0316331461201c5760405162461bcd60e51b815260206004820181905260248201526000805160206136d58339815191526044820152606401610bd4565b6001600160a01b0381166120985760405162461bcd60e51b815260206004820152602660248201527f4f776e61626c653a206e6577206f776e657220697320746865207a65726f206160448201527f64647265737300000000000000000000000000000000000000000000000000006064820152608401610bd4565b611a398161286a565b600082815260066020526040808220805473ffffffffffffffffffffffffffffffffffffffff19166001600160a01b0387811691821790925591518593918516917f8c5be1e5ebec7d5bd14f71427d1e84f3dd0314c0f7b2291e5b200ac8c7c3b92591a4505050565b60006121158261269f565b80519091506000906001600160a01b0316336001600160a01b0316148061214c57503361214184610b5a565b6001600160a01b0316145b8061215e5750815161215e903361097c565b9050806121d35760405162461bcd60e51b815260206004820152602960248201527f7472616e736665722063616c6c6572206973206e6f74206f776e6572206e6f7260448201527f20617070726f76656400000000000000000000000000000000000000000000006064820152608401610bd4565b846001600160a01b031682600001516001600160a01b0316146122385760405162461bcd60e51b815260206004820152601d60248201527f7472616e736665722066726f6d20696e636f7272656374206f776e65720000006044820152606401610bd4565b6001600160a01b03841661228e5760405162461bcd60e51b815260206004820152601c60248201527f7472616e7366657220746f20746865207a65726f2061646472657373000000006044820152606401610bd4565b61229e60008484600001516120a1565b6001600160a01b03851660009081526005602052604081208054600192906122d09084906001600160801b0316613590565b82546101009290920a6001600160801b038181021990931691831602179091556001600160a01b0386166000908152600560205260408120805460019450909261231c91859116613523565b82546001600160801b039182166101009390930a9283029190920219909116179055506040805180820182526001600160a01b03808716825267ffffffffffffffff428116602080850191825260008981526004909152948520935184549151909216600160a01b026001600160e01b031990911691909216171790556123a4846001613545565b6000818152600460205260409020549091506001600160a01b0316612436576123ce816001541190565b156124365760408051808201825284516001600160a01b03908116825260208087015167ffffffffffffffff9081168285019081526000878152600490935294909120925183549451909116600160a01b026001600160e01b03199094169116179190911790555b83856001600160a01b0316876001600160a01b03167fddf252ad1be2c89b69c2b068fc378daa952ba7f163c4a11628f55a4df523b3ef60405160405180910390a45b505050505050565b600854816124d05760405162461bcd60e51b815260206004820152601860248201527f7175616e74697479206d757374206265206e6f6e7a65726f00000000000000006044820152606401610bd4565b600060016124de8484613545565b6124e891906135b8565b905061251560017f00000000000000000000000000000000000000000000000000000000000000006135b8565b81111561254a5761254760017f00000000000000000000000000000000000000000000000000000000000000006135b8565b90505b612555816001541190565b6125c75760405162461bcd60e51b815260206004820152602660248201527f6e6f7420656e6f756768206d696e7465642079657420666f722074686973206360448201527f6c65616e757000000000000000000000000000000000000000000000000000006064820152608401610bd4565b815b81811161266d576000818152600460205260409020546001600160a01b031661265b5760006125f78261269f565b60408051808201825282516001600160a01b03908116825260209384015167ffffffffffffffff9081168584019081526000888152600490965293909420915182549351909416600160a01b026001600160e01b0319909316931692909217179055505b806126658161364d565b9150506125c9565b50612679816001613545565b600855505050565b61269b828260405180602001604052806000815250612cc3565b5050565b60408051808201909152600080825260208201526126be826001541190565b6127305760405162461bcd60e51b815260206004820152602160248201527f6f776e657220717565727920666f72206e6f6e6578697374656e7420746f6b6560448201527f6e000000000000000000000000000000000000000000000000000000000000006064820152608401610bd4565b60007f00000000000000000000000000000000000000000000000000000000000000008310612791576127837f0000000000000000000000000000000000000000000000000000000000000000846135b8565b61278e906001613545565b90505b825b8181106127fb576000818152600460209081526040918290208251808401909352546001600160a01b038116808452600160a01b90910467ffffffffffffffff1691830191909152156127e857949350505050565b50806127f3816135fb565b915050612793565b5060405162461bcd60e51b815260206004820152602660248201527f756e61626c6520746f2064657465726d696e6520746865206f776e6572206f6660448201527f20746f6b656e00000000000000000000000000000000000000000000000000006064820152608401610bd4565b600080546001600160a01b0383811673ffffffffffffffffffffffffffffffffffffffff19831681178455604051919092169283917f8be0079c531659141344cd1fd0a4f28419497f9722a3daafe3b4186f6b6457e09190a35050565b803410156129175760405162461bcd60e51b815260206004820152601660248201527f4e65656420746f2073656e64206d6f7265204554482e000000000000000000006044820152606401610bd4565b80341115611a3957336108fc61292d83346135b8565b6040518115909202916000818181858888f1935050505015801561269b573d6000803e3d6000fd5b60006001600160a01b0384163b15612a9a57604051630a85bd0160e11b81526001600160a01b0385169063150b7a02906129999033908990889088906004016134a3565b602060405180830381600087803b1580156129b357600080fd5b505af19250505080156129e3575060408051601f3d908101601f191682019092526129e0918101906132e9565b60015b612a80573d808015612a11576040519150601f19603f3d011682016040523d82523d6000602084013e612a16565b606091505b508051612a785760405162461bcd60e51b815260206004820152602a60248201527f7472616e7366657220746f206e6f6e204552433732315265636569766572206960448201526936b83632b6b2b73a32b960b11b6064820152608401610bd4565b805181602001fd5b6001600160e01b031916630a85bd0160e11b149050612a9e565b5060015b949350505050565b6060600a8054610ad790613612565b606081612af557505060408051808201909152600181527f3000000000000000000000000000000000000000000000000000000000000000602082015290565b8160005b8115612b1f5780612b098161364d565b9150612b189050600a8361355d565b9150612af9565b60008167ffffffffffffffff811115612b4857634e487b7160e01b600052604160045260246000fd5b6040519080825280601f01601f191660200182016040528015612b72576020820181803683370190505b5090505b8415612a9e57612b876001836135b8565b9150612b94600a86613668565b612b9f906030613545565b60f81b818381518110612bc257634e487b7160e01b600052603260045260246000fd5b60200101907effffffffffffffffffffffffffffffffffffffffffffffffffffffffffffff1916908160001a905350612bfc600a8661355d565b9450612b76565b60006001600160a01b038216612c815760405162461bcd60e51b815260206004820152602860248201527f6e756d626572206d696e74656420717565727920666f7220746865207a65726f60448201527f20616464726573730000000000000000000000000000000000000000000000006064820152608401610bd4565b506001600160a01b0316600090815260056020526040902054600160801b90046001600160801b031690565b600082612cba8584612fcc565b14949350505050565b6001546001600160a01b038416612d1c5760405162461bcd60e51b815260206004820152601860248201527f6d696e7420746f20746865207a65726f206164647265737300000000000000006044820152606401610bd4565b612d27816001541190565b15612d745760405162461bcd60e51b815260206004820152601460248201527f746f6b656e20616c7265616479206d696e7465640000000000000000000000006044820152606401610bd4565b7f0000000000000000000000000000000000000000000000000000000000000000831115612de45760405162461bcd60e51b815260206004820152601960248201527f7175616e7469747920746f206d696e7420746f6f2068696768000000000000006044820152606401610bd4565b6001600160a01b0384166000908152600560209081526040918290208251808401845290546001600160801b038082168352600160801b9091041691810191909152815180830190925280519091908190612e40908790613523565b6001600160801b03168152602001858360200151612e5e9190613523565b6001600160801b039081169091526001600160a01b0380881660008181526005602090815260408083208751978301518716600160801b0297909616969096179094558451808601865291825267ffffffffffffffff4281168386019081528883526004909552948120915182549451909516600160a01b026001600160e01b031990941694909216939093179190911790915582905b85811015612fc15760405182906001600160a01b038916906000907fddf252ad1be2c89b69c2b068fc378daa952ba7f163c4a11628f55a4df523b3ef908290a4612f426000888488612955565b612fa15760405162461bcd60e51b815260206004820152602a60248201527f7472616e7366657220746f206e6f6e204552433732315265636569766572206960448201526936b83632b6b2b73a32b960b11b6064820152608401610bd4565b81612fab8161364d565b9250508080612fb99061364d565b915050612ef5565b506001819055612478565b600081815b8451811015613046576000858281518110612ffc57634e487b7160e01b600052603260045260246000fd5b602002602001015190508083116130225760008381526020829052604090209250613033565b600081815260208490526040902092505b508061303e8161364d565b915050612fd1565b509392505050565b82805461305a90613612565b90600052602060002090601f01602090048101928261307c57600085556130c2565b82601f106130955782800160ff198235161785556130c2565b828001600101855582156130c2579182015b828111156130c25782358255916020019190600101906130a7565b5061100e9291505b8082111561100e57600081556001016130ca565b80356001600160a01b03811681146130f557600080fd5b919050565b803580151581146130f557600080fd5b60006020828403121561311b578081fd5b611c0e826130de565b60008060408385031215613136578081fd5b61313f836130de565b915061314d602084016130de565b90509250929050565b60008060006060848603121561316a578081fd5b613173846130de565b9250613181602085016130de565b9150604084013590509250925092565b600080600080608085870312156131a6578081fd5b6131af856130de565b935060206131be8187016130de565b935060408601359250606086013567ffffffffffffffff808211156131e1578384fd5b818801915088601f8301126131f4578384fd5b813581811115613206576132066136a8565b613218601f8201601f191685016134f2565b9150808252898482850101111561322d578485fd5b8084840185840137810190920192909252939692955090935050565b6000806040838503121561325b578182fd5b613264836130de565b915061314d602084016130fa565b60008060408385031215613284578182fd5b61328d836130de565b946020939093013593505050565b6000602082840312156132ac578081fd5b611c0e826130fa565b6000602082840312156132c6578081fd5b5035919050565b6000602082840312156132de578081fd5b8135611c0e816136be565b6000602082840312156132fa578081fd5b8151611c0e816136be565b60008060208385031215613317578182fd5b823567ffffffffffffffff8082111561332e578384fd5b818501915085601f830112613341578384fd5b81358181111561334f578485fd5b866020828501011115613360578485fd5b60209290920196919550909350505050565b60008060408385031215613384578182fd5b8235915061314d602084016130de565b600080604083850312156133a6578182fd5b8235915060208084013567ffffffffffffffff808211156133c5578384fd5b818601915086601f8301126133d8578384fd5b8135818111156133ea576133ea6136a8565b8060051b91506133fb8483016134f2565b8181528481019084860184860187018b1015613415578788fd5b8795505b83861015613437578035835260019590950194918601918601613419565b508096505050505050509250929050565b600081518084526134608160208601602086016135cf565b601f01601f19169290920160200192915050565b600083516134868184602088016135cf565b83519083019061349a8183602088016135cf565b01949350505050565b60006001600160a01b038087168352808616602084015250836040830152608060608301526134d56080830184613448565b9695505050505050565b602081526000611c0e6020830184613448565b604051601f8201601f1916810167ffffffffffffffff8111828210171561351b5761351b6136a8565b604052919050565b60006001600160801b0380831681851680830382111561349a5761349a61367c565b600082198211156135585761355861367c565b500190565b60008261356c5761356c613692565b500490565b600081600019048311821515161561358b5761358b61367c565b500290565b60006001600160801b03838116908316818110156135b0576135b061367c565b039392505050565b6000828210156135ca576135ca61367c565b500390565b60005b838110156135ea5781810151838201526020016135d2565b83811115611b0d5750506000910152565b60008161360a5761360a61367c565b506000190190565b600181811c9082168061362657607f821691505b6020821081141561364757634e487b7160e01b600052602260045260246000fd5b50919050565b60006000198214156136615761366161367c565b5060010190565b60008261367757613677613692565b500690565b634e487b7160e01b600052601160045260246000fd5b634e487b7160e01b600052601260045260246000fd5b634e487b7160e01b600052604160045260246000fd5b6001600160e01b031981168114611a3957600080fdfe4f776e61626c653a2063616c6c6572206973206e6f7420746865206f776e6572a26469706673582212206bc55cbbe4345de0aa4d872e154acabccadd362084025693a1bf411fcf007e7064736f6c63430008040033",
  "linkReferences": {},
  "deployedLinkReferences": {}
}