{
  "_format": "hh-sol-artifact-1",
  "contractName": "Rzuki",
  "sourceName": "contracts/Rzuki.sol",
  "abi": [
    {
      "inputs": [
        {
          "internalType": "string",
          "name": "initBaseURI",
          "type": "string"
        }
      ],
      "stateMutability": "nonpayable",
      "type": "constructor"
    },
    {
      "anonymous": false,
      "inputs": [
        {
          "indexed": true,
          "internalType": "address",
          "name": "owner",
          "type": "address"
        },
        {
          "indexed": true,
          "internalType": "address",
          "name": "approved",
          "type": "address"
        },
        {
          "indexed": true,
          "internalType": "uint256",
          "name": "tokenId",
          "type": "uint256"
        }
      ],
      "name": "Approval",
      "type": "event"
    },
    {
      "anonymous": false,
      "inputs": [
        {
          "indexed": true,
          "internalType": "address",
          "name": "owner",
          "type": "address"
        },
        {
          "indexed": true,
          "internalType": "address",
          "name": "operator",
          "type": "address"
        },
        {
          "indexed": false,
          "internalType": "bool",
          "name": "approved",
          "type": "bool"
        }
      ],
      "name": "ApprovalForAll",
      "type": "event"
    },
    {
      "anonymous": false,
      "inputs": [
        {
          "indexed": false,
          "internalType": "string",
          "name": "newBaseURI",
          "type": "string"
        }
      ],
      "name": "BaseURIChanged",
      "type": "event"
    },
    {
      "anonymous": false,
      "inputs": [
        {
          "indexed": false,
          "internalType": "uint256",
          "name": "value",
          "type": "uint256"
        }
      ],
      "name": "Log",
      "type": "event"
    },
    {
      "anonymous": false,
      "inputs": [
        {
          "indexed": false,
          "internalType": "address",
          "name": "minter",
          "type": "address"
        },
        {
          "indexed": false,
          "internalType": "uint256",
          "name": "amount",
          "type": "uint256"
        }
      ],
      "name": "Minted",
      "type": "event"
    },
    {
      "anonymous": false,
      "inputs": [
        {
          "indexed": true,
          "internalType": "address",
          "name": "previousOwner",
          "type": "address"
        },
        {
          "indexed": true,
          "internalType": "address",
          "name": "newOwner",
          "type": "address"
        }
      ],
      "name": "OwnershipTransferred",
      "type": "event"
    },
    {
      "anonymous": false,
      "inputs": [
        {
          "indexed": false,
          "internalType": "enum Rzuki.Status",
          "name": "status",
          "type": "uint8"
        }
      ],
      "name": "StatusChanged",
      "type": "event"
    },
    {
      "anonymous": false,
      "inputs": [
        {
          "indexed": true,
          "internalType": "address",
          "name": "from",
          "type": "address"
        },
        {
          "indexed": true,
          "internalType": "address",
          "name": "to",
          "type": "address"
        },
        {
          "indexed": true,
          "internalType": "uint256",
          "name": "tokenId",
          "type": "uint256"
        }
      ],
      "name": "Transfer",
      "type": "event"
    },
    {
      "inputs": [
        {
          "internalType": "uint256",
          "name": "tokenId",
          "type": "uint256"
        },
        {
          "internalType": "uint256",
          "name": "newTokenPrice",
          "type": "uint256"
        }
      ],
      "name": "SetTokenIdPrice",
      "outputs": [],
      "stateMutability": "nonpayable",
      "type": "function"
    },
    {
      "inputs": [
        {
          "internalType": "address",
          "name": "to",
          "type": "address"
        },
        {
          "internalType": "uint256",
          "name": "tokenId",
          "type": "uint256"
        }
      ],
      "name": "approve",
      "outputs": [],
      "stateMutability": "nonpayable",
      "type": "function"
    },
    {
      "inputs": [
        {
          "internalType": "address",
          "name": "owner",
          "type": "address"
        }
      ],
      "name": "balanceOf",
      "outputs": [
        {
          "internalType": "uint256",
          "name": "",
          "type": "uint256"
        }
      ],
      "stateMutability": "view",
      "type": "function"
    },
    {
      "inputs": [],
      "name": "baseURI",
      "outputs": [
        {
          "internalType": "string",
          "name": "",
          "type": "string"
        }
      ],
      "stateMutability": "view",
      "type": "function"
    },
    {
      "inputs": [
        {
          "internalType": "uint256",
          "name": "tokenId",
          "type": "uint256"
        }
      ],
      "name": "buy",
      "outputs": [],
      "stateMutability": "payable",
      "type": "function"
    },
    {
      "inputs": [
        {
          "internalType": "uint256",
          "name": "tokenId",
          "type": "uint256"
        }
      ],
      "name": "getApproved",
      "outputs": [
        {
          "internalType": "address",
          "name": "",
          "type": "address"
        }
      ],
      "stateMutability": "view",
      "type": "function"
    },
    {
      "inputs": [
        {
          "internalType": "address",
          "name": "addr",
          "type": "address"
        }
      ],
      "name": "getMinted",
      "outputs": [
        {
          "internalType": "bool",
          "name": "",
          "type": "bool"
        }
      ],
      "stateMutability": "view",
      "type": "function"
    },
    {
      "inputs": [],
      "name": "getOwners",
      "outputs": [
        {
          "internalType": "address[]",
          "name": "",
          "type": "address[]"
        }
      ],
      "stateMutability": "view",
      "type": "function"
    },
    {
      "inputs": [
        {
          "internalType": "uint256",
          "name": "tokenId",
          "type": "uint256"
        }
      ],
      "name": "getTokenPrice",
      "outputs": [
        {
          "internalType": "uint256",
          "name": "",
          "type": "uint256"
        }
      ],
      "stateMutability": "view",
      "type": "function"
    },
    {
      "inputs": [
        {
          "internalType": "address",
          "name": "to",
          "type": "address"
        }
      ],
      "name": "giveAwayMint",
      "outputs": [],
      "stateMutability": "nonpayable",
      "type": "function"
    },
    {
      "inputs": [
        {
          "internalType": "address",
          "name": "owner",
          "type": "address"
        },
        {
          "internalType": "address",
          "name": "operator",
          "type": "address"
        }
      ],
      "name": "isApprovedForAll",
      "outputs": [
        {
          "internalType": "bool",
          "name": "",
          "type": "bool"
        }
      ],
      "stateMutability": "view",
      "type": "function"
    },
    {
      "inputs": [],
      "name": "mint",
      "outputs": [],
      "stateMutability": "payable",
      "type": "function"
    },
    {
      "inputs": [],
      "name": "mintPrice",
      "outputs": [
        {
          "internalType": "uint256",
          "name": "",
          "type": "uint256"
        }
      ],
      "stateMutability": "view",
      "type": "function"
    },
    {
      "inputs": [],
      "name": "name",
      "outputs": [
        {
          "internalType": "string",
          "name": "",
          "type": "string"
        }
      ],
      "stateMutability": "view",
      "type": "function"
    },
    {
      "inputs": [],
      "name": "owner",
      "outputs": [
        {
          "internalType": "address",
          "name": "",
          "type": "address"
        }
      ],
      "stateMutability": "view",
      "type": "function"
    },
    {
      "inputs": [
        {
          "internalType": "uint256",
          "name": "tokenId",
          "type": "uint256"
        }
      ],
      "name": "ownerOf",
      "outputs": [
        {
          "internalType": "address",
          "name": "",
          "type": "address"
        }
      ],
      "stateMutability": "view",
      "type": "function"
    },
    {
      "inputs": [],
      "name": "renounceOwnership",
      "outputs": [],
      "stateMutability": "nonpayable",
      "type": "function"
    },
    {
      "inputs": [
        {
          "internalType": "address",
          "name": "from",
          "type": "address"
        },
        {
          "internalType": "address",
          "name": "to",
          "type": "address"
        },
        {
          "internalType": "uint256",
          "name": "tokenId",
          "type": "uint256"
        }
      ],
      "name": "safeTransferFrom",
      "outputs": [],
      "stateMutability": "nonpayable",
      "type": "function"
    },
    {
      "inputs": [
        {
          "internalType": "address",
          "name": "from",
          "type": "address"
        },
        {
          "internalType": "address",
          "name": "to",
          "type": "address"
        },
        {
          "internalType": "uint256",
          "name": "tokenId",
          "type": "uint256"
        },
        {
          "internalType": "bytes",
          "name": "_data",
          "type": "bytes"
        }
      ],
      "name": "safeTransferFrom",
      "outputs": [],
      "stateMutability": "nonpayable",
      "type": "function"
    },
    {
      "inputs": [
        {
          "internalType": "address",
          "name": "operator",
          "type": "address"
        },
        {
          "internalType": "bool",
          "name": "approved",
          "type": "bool"
        }
      ],
      "name": "setApprovalForAll",
      "outputs": [],
      "stateMutability": "nonpayable",
      "type": "function"
    },
    {
      "inputs": [
        {
          "internalType": "string",
          "name": "newBaseURI",
          "type": "string"
        }
      ],
      "name": "setBaseURI",
      "outputs": [],
      "stateMutability": "nonpayable",
      "type": "function"
    },
    {
      "inputs": [
        {
          "internalType": "uint256",
          "name": "newMintPrice",
          "type": "uint256"
        }
      ],
      "name": "setMintPrice",
      "outputs": [],
      "stateMutability": "nonpayable",
      "type": "function"
    },
    {
      "inputs": [
        {
          "internalType": "enum Rzuki.Status",
          "name": "_status",
          "type": "uint8"
        }
      ],
      "name": "setStatus",
      "outputs": [],
      "stateMutability": "nonpayable",
      "type": "function"
    },
    {
      "inputs": [
        {
          "internalType": "uint256",
          "name": "newSupply",
          "type": "uint256"
        }
      ],
      "name": "setSupply",
      "outputs": [],
      "stateMutability": "nonpayable",
      "type": "function"
    },
    {
      "inputs": [
        {
          "internalType": "uint256",
          "name": "newTradeFeePrecent",
          "type": "uint256"
        }
      ],
      "name": "setTradeFeePrecent",
      "outputs": [],
      "stateMutability": "nonpayable",
      "type": "function"
    },
    {
      "inputs": [],
      "name": "status",
      "outputs": [
        {
          "internalType": "enum Rzuki.Status",
          "name": "",
          "type": "uint8"
        }
      ],
      "stateMutability": "view",
      "type": "function"
    },
    {
      "inputs": [],
      "name": "supply",
      "outputs": [
        {
          "internalType": "uint256",
          "name": "",
          "type": "uint256"
        }
      ],
      "stateMutability": "view",
      "type": "function"
    },
    {
      "inputs": [
        {
          "internalType": "bytes4",
          "name": "interfaceId",
          "type": "bytes4"
        }
      ],
      "name": "supportsInterface",
      "outputs": [
        {
          "internalType": "bool",
          "name": "",
          "type": "bool"
        }
      ],
      "stateMutability": "view",
      "type": "function"
    },
    {
      "inputs": [],
      "name": "symbol",
      "outputs": [
        {
          "internalType": "string",
          "name": "",
          "type": "string"
        }
      ],
      "stateMutability": "view",
      "type": "function"
    },
    {
      "inputs": [
        {
          "internalType": "uint256",
          "name": "tokenId",
          "type": "uint256"
        }
      ],
      "name": "tokenURI",
      "outputs": [
        {
          "internalType": "string",
          "name": "",
          "type": "string"
        }
      ],
      "stateMutability": "view",
      "type": "function"
    },
    {
      "inputs": [],
      "name": "totalSupply",
      "outputs": [
        {
          "internalType": "uint256",
          "name": "",
          "type": "uint256"
        }
      ],
      "stateMutability": "view",
      "type": "function"
    },
    {
      "inputs": [],
      "name": "tradeFeePrecent",
      "outputs": [
        {
          "internalType": "uint256",
          "name": "",
          "type": "uint256"
        }
      ],
      "stateMutability": "view",
      "type": "function"
    },
    {
      "inputs": [
        {
          "internalType": "address",
          "name": "from",
          "type": "address"
        },
        {
          "internalType": "address",
          "name": "to",
          "type": "address"
        },
        {
          "internalType": "uint256",
          "name": "tokenId",
          "type": "uint256"
        }
      ],
      "name": "transferFrom",
      "outputs": [],
      "stateMutability": "nonpayable",
      "type": "function"
    },
    {
      "inputs": [
        {
          "internalType": "address",
          "name": "newOwner",
          "type": "address"
        }
      ],
      "name": "transferOwnership",
      "outputs": [],
      "stateMutability": "nonpayable",
      "type": "function"
    },
    {
      "inputs": [],
      "name": "withdraw",
      "outputs": [],
      "stateMutability": "nonpayable",
      "type": "function"
    }
  ],
  "bytecode": "0x6080604052600a60085566038d7ea4c680006009556019600a553480156200002657600080fd5b5060405162004f4638038062004f4683398181016040528101906200004c919062000324565b6040518060400160405280600581526020017f527a756b690000000000000000000000000000000000000000000000000000008152506040518060400160405280600381526020017f525a4b00000000000000000000000000000000000000000000000000000000008152508160009080519060200190620000d092919062000202565b508060019080519060200190620000e992919062000202565b5050506200010c620001006200013460201b60201c565b6200013c60201b60201c565b600160068190555080600b90805190602001906200012c92919062000202565b5050620004d9565b600033905090565b6000600560009054906101000a900473ffffffffffffffffffffffffffffffffffffffff16905081600560006101000a81548173ffffffffffffffffffffffffffffffffffffffff021916908373ffffffffffffffffffffffffffffffffffffffff1602179055508173ffffffffffffffffffffffffffffffffffffffff168173ffffffffffffffffffffffffffffffffffffffff167f8be0079c531659141344cd1fd0a4f28419497f9722a3daafe3b4186f6b6457e060405160405180910390a35050565b8280546200021090620003fe565b90600052602060002090601f01602090048101928262000234576000855562000280565b82601f106200024f57805160ff191683800117855562000280565b8280016001018555821562000280579182015b828111156200027f57825182559160200191906001019062000262565b5b5090506200028f919062000293565b5090565b5b80821115620002ae57600081600090555060010162000294565b5090565b6000620002c9620002c38462000392565b62000369565b905082815260208101848484011115620002e257600080fd5b620002ef848285620003c8565b509392505050565b600082601f8301126200030957600080fd5b81516200031b848260208601620002b2565b91505092915050565b6000602082840312156200033757600080fd5b600082015167ffffffffffffffff8111156200035257600080fd5b6200036084828501620002f7565b91505092915050565b60006200037562000388565b905062000383828262000434565b919050565b6000604051905090565b600067ffffffffffffffff821115620003b057620003af62000499565b5b620003bb82620004c8565b9050602081019050919050565b60005b83811015620003e8578082015181840152602081019050620003cb565b83811115620003f8576000848401525b50505050565b600060028204905060018216806200041757607f821691505b602082108114156200042e576200042d6200046a565b5b50919050565b6200043f82620004c8565b810181811067ffffffffffffffff8211171562000461576200046062000499565b5b80604052505050565b7f4e487b7100000000000000000000000000000000000000000000000000000000600052602260045260246000fd5b7f4e487b7100000000000000000000000000000000000000000000000000000000600052604160045260246000fd5b6000601f19601f8301169050919050565b614a5d80620004e96000396000f3fe6080604052600436106102045760003560e01c80636c0360eb11610118578063a4628e3e116100a0578063d96a094a1161006f578063d96a094a14610734578063e985e9c514610750578063f2fde38b1461078d578063f380ba8c146107b6578063f4a0a528146107df57610204565b8063a4628e3e14610668578063b88d4fde14610691578063c457fb37146106ba578063c87b56dd146106f757610204565b8063917feb08116100e7578063917feb081461058157806395d89b41146105ac57806396215e92146105d7578063a0e67e2b14610614578063a22cb4651461063f57610204565b80636c0360eb146104d757806370a0823114610502578063715018a61461053f5780638da5cb5b1461055657610204565b8063200d2ed21161019b5780633ccfd60b1161016a5780633ccfd60b1461040657806342842e0e1461041d57806355f804b3146104465780636352211e1461046f5780636817c76c146104ac57610204565b8063200d2ed21461036057806323b872dd1461038b5780632e49d78b146103b45780633b4c4b25146103dd57610204565b8063095ea7b3116101d7578063095ea7b3146102d95780630a37c408146103025780631249c58b1461032b57806318160ddd1461033557610204565b806301ffc9a714610209578063047fc9aa1461024657806306fdde0314610271578063081812fc1461029c575b600080fd5b34801561021557600080fd5b50610230600480360381019061022b9190613205565b610808565b60405161023d919061398f565b60405180910390f35b34801561025257600080fd5b5061025b6108ea565b6040516102689190613d87565b60405180910390f35b34801561027d57600080fd5b506102866108f0565b60405161029391906139c5565b60405180910390f35b3480156102a857600080fd5b506102c360048036038101906102be91906132c1565b610982565b6040516102d091906138dd565b60405180910390f35b3480156102e557600080fd5b5061030060048036038101906102fb91906131c9565b610a07565b005b34801561030e57600080fd5b50610329600480360381019061032491906132c1565b610b1f565b005b610333610be8565b005b34801561034157600080fd5b5061034a610ea6565b6040516103579190613d87565b60405180910390f35b34801561036c57600080fd5b50610375610eb3565b60405161038291906139aa565b60405180910390f35b34801561039757600080fd5b506103b260048036038101906103ad91906130c3565b610ec6565b005b3480156103c057600080fd5b506103db60048036038101906103d69190613257565b610f26565b005b3480156103e957600080fd5b5061040460048036038101906103ff91906132c1565b61103b565b005b34801561041257600080fd5b5061041b611105565b005b34801561042957600080fd5b50610444600480360381019061043f91906130c3565b6111d0565b005b34801561045257600080fd5b5061046d60048036038101906104689190613280565b6111f0565b005b34801561047b57600080fd5b50610496600480360381019061049191906132c1565b6112bd565b6040516104a391906138dd565b60405180910390f35b3480156104b857600080fd5b506104c16113a0565b6040516104ce9190613d87565b60405180910390f35b3480156104e357600080fd5b506104ec6113a6565b6040516104f991906139c5565b60405180910390f35b34801561050e57600080fd5b506105296004803603810190610524919061305e565b611434565b6040516105369190613d87565b60405180910390f35b34801561054b57600080fd5b50610554611580565b005b34801561056257600080fd5b5061056b611608565b60405161057891906138dd565b60405180910390f35b34801561058d57600080fd5b50610596611632565b6040516105a39190613d87565b60405180910390f35b3480156105b857600080fd5b506105c1611638565b6040516105ce91906139c5565b60405180910390f35b3480156105e357600080fd5b506105fe60048036038101906105f9919061305e565b6116ca565b60405161060b919061398f565b60405180910390f35b34801561062057600080fd5b50610629611720565b604051610636919061396d565b60405180910390f35b34801561064b57600080fd5b506106666004803603810190610661919061318d565b6117ae565b005b34801561067457600080fd5b5061068f600480360381019061068a91906132ea565b61192f565b005b34801561069d57600080fd5b506106b860048036038101906106b39190613112565b611a78565b005b3480156106c657600080fd5b506106e160048036038101906106dc91906132c1565b611ada565b6040516106ee9190613d87565b60405180910390f35b34801561070357600080fd5b5061071e600480360381019061071991906132c1565b611af7565b60405161072b91906139c5565b60405180910390f35b61074e600480360381019061074991906132c1565b611b9e565b005b34801561075c57600080fd5b5061077760048036038101906107729190613087565b611dd1565b604051610784919061398f565b60405180910390f35b34801561079957600080fd5b506107b460048036038101906107af919061305e565b611e65565b005b3480156107c257600080fd5b506107dd60048036038101906107d8919061305e565b611f5d565b005b3480156107eb57600080fd5b50610806600480360381019061080191906132c1565b612057565b005b60007f80ac58cd000000000000000000000000000000000000000000000000000000007bffffffffffffffffffffffffffffffffffffffffffffffffffffffff1916827bffffffffffffffffffffffffffffffffffffffffffffffffffffffff191614806108d357507f5b5e139f000000000000000000000000000000000000000000000000000000007bffffffffffffffffffffffffffffffffffffffffffffffffffffffff1916827bffffffffffffffffffffffffffffffffffffffffffffffffffffffff1916145b806108e357506108e282612121565b5b9050919050565b60085481565b6060600080546108ff906140a0565b80601f016020809104026020016040519081016040528092919081815260200182805461092b906140a0565b80156109785780601f1061094d57610100808354040283529160200191610978565b820191906000526020600020905b81548152906001019060200180831161095b57829003601f168201915b5050505050905090565b600061098d8261218b565b6109cc576040517f08c379a00000000000000000000000000000000000000000000000000000000081526004016109c390613c47565b60405180910390fd5b6003600083815260200190815260200160002060009054906101000a900473ffffffffffffffffffffffffffffffffffffffff169050919050565b6000610a12826112bd565b90508073ffffffffffffffffffffffffffffffffffffffff168373ffffffffffffffffffffffffffffffffffffffff161415610a83576040517f08c379a0000000000000000000000000000000000000000000000000000000008152600401610a7a90613cc7565b60405180910390fd5b8073ffffffffffffffffffffffffffffffffffffffff16610aa2612239565b73ffffffffffffffffffffffffffffffffffffffff161480610ad15750610ad081610acb612239565b611dd1565b5b610b10576040517f08c379a0000000000000000000000000000000000000000000000000000000008152600401610b0790613bc7565b60405180910390fd5b610b1a8383612241565b505050565b610b27612239565b73ffffffffffffffffffffffffffffffffffffffff16610b45611608565b73ffffffffffffffffffffffffffffffffffffffff1614610b9b576040517f08c379a0000000000000000000000000000000000000000000000000000000008152600401610b9290613c67565b60405180910390fd5b60008111610bde576040517f08c379a0000000000000000000000000000000000000000000000000000000008152600401610bd590613b47565b60405180910390fd5b80600a8190555050565b60026006541415610c2e576040517f08c379a0000000000000000000000000000000000000000000000000000000008152600401610c2590613d67565b60405180910390fd5b600260068190555060016002811115610c70577f4e487b7100000000000000000000000000000000000000000000000000000000600052602160045260246000fd5b600760009054906101000a900460ff166002811115610cb8577f4e487b7100000000000000000000000000000000000000000000000000000000600052602160045260246000fd5b14610cf8576040517f08c379a0000000000000000000000000000000000000000000000000000000008152600401610cef906139e7565b60405180910390fd5b6008546001610d05610ea6565b610d0f9190613eb0565b1115610d50576040517f08c379a0000000000000000000000000000000000000000000000000000000008152600401610d4790613a07565b60405180910390fd5b600d60003373ffffffffffffffffffffffffffffffffffffffff1673ffffffffffffffffffffffffffffffffffffffff16815260200190815260200160002060009054906101000a900460ff1615610ddd576040517f08c379a0000000000000000000000000000000000000000000000000000000008152600401610dd490613d47565b60405180910390fd5b6001600d60003373ffffffffffffffffffffffffffffffffffffffff1673ffffffffffffffffffffffffffffffffffffffff16815260200190815260200160002060006101000a81548160ff02191690831515021790555060006001610e41610ea6565b610e4b9190613eb0565b9050610e5733826122fa565b7f30385c845b448a36257a6a1716e6ad2e1bc2cbe333cde1e69fe849ad6511adfe3382604051610e88929190613944565b60405180910390a1610e9b600954612318565b506001600681905550565b6000600280549050905090565b600760009054906101000a900460ff1681565b610ed7610ed1612239565b826123b9565b610f16576040517f08c379a0000000000000000000000000000000000000000000000000000000008152600401610f0d90613ce7565b60405180910390fd5b610f21838383612497565b505050565b610f2e612239565b73ffffffffffffffffffffffffffffffffffffffff16610f4c611608565b73ffffffffffffffffffffffffffffffffffffffff1614610fa2576040517f08c379a0000000000000000000000000000000000000000000000000000000008152600401610f9990613c67565b60405180910390fd5b80600760006101000a81548160ff02191690836002811115610fed577f4e487b7100000000000000000000000000000000000000000000000000000000600052602160045260246000fd5b02179055507fafa725e7f44cadb687a7043853fa1a7e7b8f0da74ce87ec546e9420f04da8c1e600760009054906101000a900460ff1660405161103091906139aa565b60405180910390a150565b611043612239565b73ffffffffffffffffffffffffffffffffffffffff16611061611608565b73ffffffffffffffffffffffffffffffffffffffff16146110b7576040517f08c379a00000000000000000000000000000000000000000000000000000000081526004016110ae90613c67565b60405180910390fd5b60008110156110fb576040517f08c379a00000000000000000000000000000000000000000000000000000000081526004016110f290613a27565b60405180910390fd5b8060088190555050565b61110d612239565b73ffffffffffffffffffffffffffffffffffffffff1661112b611608565b73ffffffffffffffffffffffffffffffffffffffff1614611181576040517f08c379a000000000000000000000000000000000000000000000000000000000815260040161117890613c67565b60405180910390fd5b600047116111c4576040517f08c379a00000000000000000000000000000000000000000000000000000000081526004016111bb90613b27565b60405180910390fd5b6111ce3347612676565b565b6111eb83838360405180602001604052806000815250611a78565b505050565b6111f8612239565b73ffffffffffffffffffffffffffffffffffffffff16611216611608565b73ffffffffffffffffffffffffffffffffffffffff161461126c576040517f08c379a000000000000000000000000000000000000000000000000000000000815260040161126390613c67565b60405180910390fd5b80600b9080519060200190611282929190612e6d565b507f5411e8ebf1636d9e83d5fc4900bf80cbac82e8790da2a4c94db4895e889eedf6816040516112b291906139c5565b60405180910390a150565b600080600283815481106112fa577f4e487b7100000000000000000000000000000000000000000000000000000000600052603260045260246000fd5b9060005260206000200160009054906101000a900473ffffffffffffffffffffffffffffffffffffffff169050600073ffffffffffffffffffffffffffffffffffffffff168173ffffffffffffffffffffffffffffffffffffffff161415611397576040517f08c379a000000000000000000000000000000000000000000000000000000000815260040161138e90613c07565b60405180910390fd5b80915050919050565b60095481565b600b80546113b3906140a0565b80601f01602080910402602001604051908101604052809291908181526020018280546113df906140a0565b801561142c5780601f106114015761010080835404028352916020019161142c565b820191906000526020600020905b81548152906001019060200180831161140f57829003601f168201915b505050505081565b60008073ffffffffffffffffffffffffffffffffffffffff168273ffffffffffffffffffffffffffffffffffffffff1614156114a5576040517f08c379a000000000000000000000000000000000000000000000000000000000815260040161149c90613be7565b60405180910390fd5b600080600280549050905060005b8181101561157157600281815481106114f5577f4e487b7100000000000000000000000000000000000000000000000000000000600052603260045260246000fd5b9060005260206000200160009054906101000a900473ffffffffffffffffffffffffffffffffffffffff1673ffffffffffffffffffffffffffffffffffffffff168573ffffffffffffffffffffffffffffffffffffffff161415611560578261155d90614103565b92505b8061156a90614103565b90506114b3565b50600090508192505050919050565b611588612239565b73ffffffffffffffffffffffffffffffffffffffff166115a6611608565b73ffffffffffffffffffffffffffffffffffffffff16146115fc576040517f08c379a00000000000000000000000000000000000000000000000000000000081526004016115f390613c67565b60405180910390fd5b611606600061276a565b565b6000600560009054906101000a900473ffffffffffffffffffffffffffffffffffffffff16905090565b600a5481565b606060018054611647906140a0565b80601f0160208091040260200160405190810160405280929190818152602001828054611673906140a0565b80156116c05780601f10611695576101008083540402835291602001916116c0565b820191906000526020600020905b8154815290600101906020018083116116a357829003601f168201915b5050505050905090565b6000600d60008373ffffffffffffffffffffffffffffffffffffffff1673ffffffffffffffffffffffffffffffffffffffff16815260200190815260200160002060009054906101000a900460ff169050919050565b606060028054806020026020016040519081016040528092919081815260200182805480156117a457602002820191906000526020600020905b8160009054906101000a900473ffffffffffffffffffffffffffffffffffffffff1673ffffffffffffffffffffffffffffffffffffffff168152602001906001019080831161175a575b5050505050905090565b6117b6612239565b73ffffffffffffffffffffffffffffffffffffffff168273ffffffffffffffffffffffffffffffffffffffff161415611824576040517f08c379a000000000000000000000000000000000000000000000000000000000815260040161181b90613b07565b60405180910390fd5b8060046000611831612239565b73ffffffffffffffffffffffffffffffffffffffff1673ffffffffffffffffffffffffffffffffffffffff16815260200190815260200160002060008473ffffffffffffffffffffffffffffffffffffffff1673ffffffffffffffffffffffffffffffffffffffff16815260200190815260200160002060006101000a81548160ff0219169083151502179055508173ffffffffffffffffffffffffffffffffffffffff166118de612239565b73ffffffffffffffffffffffffffffffffffffffff167f17307eab39ab6107e8899845ad3d59bd9653f200f220920489ca2b5937696c3183604051611923919061398f565b60405180910390a35050565b60026006541415611975576040517f08c379a000000000000000000000000000000000000000000000000000000000815260040161196c90613d67565b60405180910390fd5b600260068190555060008210156119c1576040517f08c379a00000000000000000000000000000000000000000000000000000000081526004016119b890613d27565b60405180910390fd5b60008111611a04576040517f08c379a00000000000000000000000000000000000000000000000000000000081526004016119fb90613c87565b60405180910390fd5b611a15611a0f612239565b836123b9565b611a54576040517f08c379a0000000000000000000000000000000000000000000000000000000008152600401611a4b90613ce7565b60405180910390fd5b80600c60008481526020019081526020016000208190555060016006819055505050565b611a89611a83612239565b836123b9565b611ac8576040517f08c379a0000000000000000000000000000000000000000000000000000000008152600401611abf90613ce7565b60405180910390fd5b611ad484848484612830565b50505050565b6000600c6000838152602001908152602001600020549050919050565b6060611b028261218b565b611b41576040517f08c379a0000000000000000000000000000000000000000000000000000000008152600401611b3890613a47565b60405180910390fd5b6000611b4b61288c565b90506000815111611b6b5760405180602001604052806000815250611b96565b80611b758461291e565b604051602001611b869291906138a4565b6040516020818303038152906040525b915050919050565b60026006541415611be4576040517f08c379a0000000000000000000000000000000000000000000000000000000008152600401611bdb90613d67565b60405180910390fd5b60026006819055506000811015611c30576040517f08c379a0000000000000000000000000000000000000000000000000000000008152600401611c2790613d27565b60405180910390fd5b6000611c3b826112bd565b90506000600c6000848152602001908152602001600020549050611c5e81612318565b60006103e8600a5483611c719190613f37565b611c7b9190613f06565b905060008183611c8b9190613f91565b90507f909c57d5c6ac08245cf2a6de3900e2b868513fa59099b92b27d8db823d92df9c81604051611cbc9190613d87565b60405180910390a1611cce8482612676565b611cd9843387612acb565b611ce4600086612241565b3360028681548110611d1f577f4e487b7100000000000000000000000000000000000000000000000000000000600052603260045260246000fd5b9060005260206000200160006101000a81548173ffffffffffffffffffffffffffffffffffffffff021916908373ffffffffffffffffffffffffffffffffffffffff160217905550843373ffffffffffffffffffffffffffffffffffffffff168573ffffffffffffffffffffffffffffffffffffffff167fddf252ad1be2c89b69c2b068fc378daa952ba7f163c4a11628f55a4df523b3ef60405160405180910390a450505050600160068190555050565b6000600460008473ffffffffffffffffffffffffffffffffffffffff1673ffffffffffffffffffffffffffffffffffffffff16815260200190815260200160002060008373ffffffffffffffffffffffffffffffffffffffff1673ffffffffffffffffffffffffffffffffffffffff16815260200190815260200160002060009054906101000a900460ff16905092915050565b611e6d612239565b73ffffffffffffffffffffffffffffffffffffffff16611e8b611608565b73ffffffffffffffffffffffffffffffffffffffff1614611ee1576040517f08c379a0000000000000000000000000000000000000000000000000000000008152600401611ed890613c67565b60405180910390fd5b600073ffffffffffffffffffffffffffffffffffffffff168173ffffffffffffffffffffffffffffffffffffffff161415611f51576040517f08c379a0000000000000000000000000000000000000000000000000000000008152600401611f4890613a87565b60405180910390fd5b611f5a8161276a565b50565b611f65612239565b73ffffffffffffffffffffffffffffffffffffffff16611f83611608565b73ffffffffffffffffffffffffffffffffffffffff1614611fd9576040517f08c379a0000000000000000000000000000000000000000000000000000000008152600401611fd090613c67565b60405180910390fd5b6008546001611fe6610ea6565b611ff09190613eb0565b1115612031576040517f08c379a000000000000000000000000000000000000000000000000000000000815260040161202890613a07565b60405180910390fd5b6000600161203d610ea6565b6120479190613eb0565b905061205382826122fa565b5050565b61205f612239565b73ffffffffffffffffffffffffffffffffffffffff1661207d611608565b73ffffffffffffffffffffffffffffffffffffffff16146120d3576040517f08c379a00000000000000000000000000000000000000000000000000000000081526004016120ca90613c67565b60405180910390fd5b6000811015612117576040517f08c379a000000000000000000000000000000000000000000000000000000000815260040161210e90613ac7565b60405180910390fd5b8060098190555050565b60007f01ffc9a7000000000000000000000000000000000000000000000000000000007bffffffffffffffffffffffffffffffffffffffffffffffffffffffff1916827bffffffffffffffffffffffffffffffffffffffffffffffffffffffff1916149050919050565b6000600280549050821080156122325750600073ffffffffffffffffffffffffffffffffffffffff16600283815481106121ee577f4e487b7100000000000000000000000000000000000000000000000000000000600052603260045260246000fd5b9060005260206000200160009054906101000a900473ffffffffffffffffffffffffffffffffffffffff1673ffffffffffffffffffffffffffffffffffffffff1614155b9050919050565b600033905090565b816003600083815260200190815260200160002060006101000a81548173ffffffffffffffffffffffffffffffffffffffff021916908373ffffffffffffffffffffffffffffffffffffffff160217905550808273ffffffffffffffffffffffffffffffffffffffff166122b4836112bd565b73ffffffffffffffffffffffffffffffffffffffff167f8c5be1e5ebec7d5bd14f71427d1e84f3dd0314c0f7b2291e5b200ac8c7c3b92560405160405180910390a45050565b612314828260405180602001604052806000815250612ad0565b5050565b8034101561235b576040517f08c379a000000000000000000000000000000000000000000000000000000000815260040161235290613d07565b60405180910390fd5b803411156123b6573373ffffffffffffffffffffffffffffffffffffffff166108fc82346123899190613f91565b9081150290604051600060405180830381858888f193505050501580156123b4573d6000803e3d6000fd5b505b50565b60006123c48261218b565b612403576040517f08c379a00000000000000000000000000000000000000000000000000000000081526004016123fa90613ba7565b60405180910390fd5b600061240e836112bd565b90508073ffffffffffffffffffffffffffffffffffffffff168473ffffffffffffffffffffffffffffffffffffffff16148061247d57508373ffffffffffffffffffffffffffffffffffffffff1661246584610982565b73ffffffffffffffffffffffffffffffffffffffff16145b8061248e575061248d8185611dd1565b5b91505092915050565b8273ffffffffffffffffffffffffffffffffffffffff166124b7826112bd565b73ffffffffffffffffffffffffffffffffffffffff161461250d576040517f08c379a000000000000000000000000000000000000000000000000000000000815260040161250490613ca7565b60405180910390fd5b600073ffffffffffffffffffffffffffffffffffffffff168273ffffffffffffffffffffffffffffffffffffffff16141561257d576040517f08c379a000000000000000000000000000000000000000000000000000000000815260040161257490613ae7565b60405180910390fd5b612588838383612acb565b612593600082612241565b81600282815481106125ce577f4e487b7100000000000000000000000000000000000000000000000000000000600052603260045260246000fd5b9060005260206000200160006101000a81548173ffffffffffffffffffffffffffffffffffffffff021916908373ffffffffffffffffffffffffffffffffffffffff160217905550808273ffffffffffffffffffffffffffffffffffffffff168473ffffffffffffffffffffffffffffffffffffffff167fddf252ad1be2c89b69c2b068fc378daa952ba7f163c4a11628f55a4df523b3ef60405160405180910390a4505050565b804710156126b9576040517f08c379a00000000000000000000000000000000000000000000000000000000081526004016126b090613b87565b60405180910390fd5b60008273ffffffffffffffffffffffffffffffffffffffff16826040516126df906138c8565b60006040518083038185875af1925050503d806000811461271c576040519150601f19603f3d011682016040523d82523d6000602084013e612721565b606091505b5050905080612765576040517f08c379a000000000000000000000000000000000000000000000000000000000815260040161275c90613b67565b60405180910390fd5b505050565b6000600560009054906101000a900473ffffffffffffffffffffffffffffffffffffffff16905081600560006101000a81548173ffffffffffffffffffffffffffffffffffffffff021916908373ffffffffffffffffffffffffffffffffffffffff1602179055508173ffffffffffffffffffffffffffffffffffffffff168173ffffffffffffffffffffffffffffffffffffffff167f8be0079c531659141344cd1fd0a4f28419497f9722a3daafe3b4186f6b6457e060405160405180910390a35050565b61283b848484612497565b61284784848484612b2b565b612886576040517f08c379a000000000000000000000000000000000000000000000000000000000815260040161287d90613a67565b60405180910390fd5b50505050565b6060600b805461289b906140a0565b80601f01602080910402602001604051908101604052809291908181526020018280546128c7906140a0565b80156129145780601f106128e957610100808354040283529160200191612914565b820191906000526020600020905b8154815290600101906020018083116128f757829003601f168201915b5050505050905090565b60606000821415612966576040518060400160405280600181526020017f30000000000000000000000000000000000000000000000000000000000000008152509050612ac6565b600082905060005b6000821461299857808061298190614103565b915050600a826129919190613f06565b915061296e565b60008167ffffffffffffffff8111156129da577f4e487b7100000000000000000000000000000000000000000000000000000000600052604160045260246000fd5b6040519080825280601f01601f191660200182016040528015612a0c5781602001600182028036833780820191505090505b5090505b60008514612abf57600182612a259190613f91565b9150600a85612a34919061414c565b6030612a409190613eb0565b60f81b818381518110612a7c577f4e487b7100000000000000000000000000000000000000000000000000000000600052603260045260246000fd5b60200101907effffffffffffffffffffffffffffffffffffffffffffffffffffffffffffff1916908160001a905350600a85612ab89190613f06565b9450612a10565b8093505050505b919050565b505050565b612ada8383612cc2565b612ae76000848484612b2b565b612b26576040517f08c379a0000000000000000000000000000000000000000000000000000000008152600401612b1d90613a67565b60405180910390fd5b505050565b6000612b4c8473ffffffffffffffffffffffffffffffffffffffff16612e4a565b15612cb5578373ffffffffffffffffffffffffffffffffffffffff1663150b7a02612b75612239565b8786866040518563ffffffff1660e01b8152600401612b9794939291906138f8565b602060405180830381600087803b158015612bb157600080fd5b505af1925050508015612be257506040513d601f19601f82011682018060405250810190612bdf919061322e565b60015b612c65573d8060008114612c12576040519150601f19603f3d011682016040523d82523d6000602084013e612c17565b606091505b50600081511415612c5d576040517f08c379a0000000000000000000000000000000000000000000000000000000008152600401612c5490613a67565b60405180910390fd5b805181602001fd5b63150b7a0260e01b7bffffffffffffffffffffffffffffffffffffffffffffffffffffffff1916817bffffffffffffffffffffffffffffffffffffffffffffffffffffffff191614915050612cba565b600190505b949350505050565b600073ffffffffffffffffffffffffffffffffffffffff168273ffffffffffffffffffffffffffffffffffffffff161415612d32576040517f08c379a0000000000000000000000000000000000000000000000000000000008152600401612d2990613c27565b60405180910390fd5b612d3b8161218b565b15612d7b576040517f08c379a0000000000000000000000000000000000000000000000000000000008152600401612d7290613aa7565b60405180910390fd5b612d8760008383612acb565b6002829080600181540180825580915050600190039060005260206000200160009091909190916101000a81548173ffffffffffffffffffffffffffffffffffffffff021916908373ffffffffffffffffffffffffffffffffffffffff160217905550808273ffffffffffffffffffffffffffffffffffffffff16600073ffffffffffffffffffffffffffffffffffffffff167fddf252ad1be2c89b69c2b068fc378daa952ba7f163c4a11628f55a4df523b3ef60405160405180910390a45050565b6000808273ffffffffffffffffffffffffffffffffffffffff163b119050919050565b828054612e79906140a0565b90600052602060002090601f016020900481019282612e9b5760008555612ee2565b82601f10612eb457805160ff1916838001178555612ee2565b82800160010185558215612ee2579182015b82811115612ee1578251825591602001919060010190612ec6565b5b509050612eef9190612ef3565b5090565b5b80821115612f0c576000816000905550600101612ef4565b5090565b6000612f23612f1e84613dc7565b613da2565b905082815260208101848484011115612f3b57600080fd5b612f4684828561405e565b509392505050565b6000612f61612f5c84613df8565b613da2565b905082815260208101848484011115612f7957600080fd5b612f8484828561405e565b509392505050565b600081359050612f9b816149bb565b92915050565b600081359050612fb0816149d2565b92915050565b600081359050612fc5816149e9565b92915050565b600081519050612fda816149e9565b92915050565b600082601f830112612ff157600080fd5b8135613001848260208601612f10565b91505092915050565b60008135905061301981614a00565b92915050565b600082601f83011261303057600080fd5b8135613040848260208601612f4e565b91505092915050565b60008135905061305881614a10565b92915050565b60006020828403121561307057600080fd5b600061307e84828501612f8c565b91505092915050565b6000806040838503121561309a57600080fd5b60006130a885828601612f8c565b92505060206130b985828601612f8c565b9150509250929050565b6000806000606084860312156130d857600080fd5b60006130e686828701612f8c565b93505060206130f786828701612f8c565b925050604061310886828701613049565b9150509250925092565b6000806000806080858703121561312857600080fd5b600061313687828801612f8c565b945050602061314787828801612f8c565b935050604061315887828801613049565b925050606085013567ffffffffffffffff81111561317557600080fd5b61318187828801612fe0565b91505092959194509250565b600080604083850312156131a057600080fd5b60006131ae85828601612f8c565b92505060206131bf85828601612fa1565b9150509250929050565b600080604083850312156131dc57600080fd5b60006131ea85828601612f8c565b92505060206131fb85828601613049565b9150509250929050565b60006020828403121561321757600080fd5b600061322584828501612fb6565b91505092915050565b60006020828403121561324057600080fd5b600061324e84828501612fcb565b91505092915050565b60006020828403121561326957600080fd5b60006132778482850161300a565b91505092915050565b60006020828403121561329257600080fd5b600082013567ffffffffffffffff8111156132ac57600080fd5b6132b88482850161301f565b91505092915050565b6000602082840312156132d357600080fd5b60006132e184828501613049565b91505092915050565b600080604083850312156132fd57600080fd5b600061330b85828601613049565b925050602061331c85828601613049565b9150509250929050565b6000613332838361333e565b60208301905092915050565b61334781613fc5565b82525050565b61335681613fc5565b82525050565b600061336782613e39565b6133718185613e67565b935061337c83613e29565b8060005b838110156133ad5781516133948882613326565b975061339f83613e5a565b925050600181019050613380565b5085935050505092915050565b6133c381613fd7565b82525050565b60006133d482613e44565b6133de8185613e78565b93506133ee81856020860161406d565b6133f781614268565b840191505092915050565b61340b8161404c565b82525050565b600061341c82613e4f565b6134268185613e94565b935061343681856020860161406d565b61343f81614268565b840191505092915050565b600061345582613e4f565b61345f8185613ea5565b935061346f81856020860161406d565b80840191505092915050565b6000613488601083613e94565b915061349382614279565b602082019050919050565b60006134ab601783613e94565b91506134b6826142a2565b602082019050919050565b60006134ce602083613e94565b91506134d9826142cb565b602082019050919050565b60006134f1602183613e94565b91506134fc826142f4565b604082019050919050565b6000613514603283613e94565b915061351f82614343565b604082019050919050565b6000613537602683613e94565b915061354282614392565b604082019050919050565b600061355a601c83613e94565b9150613565826143e1565b602082019050919050565b600061357d602483613e94565b91506135888261440a565b604082019050919050565b60006135a0602483613e94565b91506135ab82614459565b604082019050919050565b60006135c3601983613e94565b91506135ce826144a8565b602082019050919050565b60006135e6601483613e94565b91506135f1826144d1565b602082019050919050565b6000613609602b83613e94565b9150613614826144fa565b604082019050919050565b600061362c603a83613e94565b915061363782614549565b604082019050919050565b600061364f601d83613e94565b915061365a82614598565b602082019050919050565b6000613672602c83613e94565b915061367d826145c1565b604082019050919050565b6000613695603883613e94565b91506136a082614610565b604082019050919050565b60006136b8602a83613e94565b91506136c38261465f565b604082019050919050565b60006136db602983613e94565b91506136e6826146ae565b604082019050919050565b60006136fe602083613e94565b9150613709826146fd565b602082019050919050565b6000613721602c83613e94565b915061372c82614726565b604082019050919050565b6000613744602083613e94565b915061374f82614775565b602082019050919050565b6000613767602783613e94565b91506137728261479e565b604082019050919050565b600061378a602983613e94565b9150613795826147ed565b604082019050919050565b60006137ad602183613e94565b91506137b88261483c565b604082019050919050565b60006137d0600083613e89565b91506137db8261488b565b600082019050919050565b60006137f3603183613e94565b91506137fe8261488e565b604082019050919050565b6000613816601683613e94565b9150613821826148dd565b602082019050919050565b6000613839602183613e94565b915061384482614906565b604082019050919050565b600061385c600e83613e94565b915061386782614955565b602082019050919050565b600061387f601f83613e94565b915061388a8261497e565b602082019050919050565b61389e81614042565b82525050565b60006138b0828561344a565b91506138bc828461344a565b91508190509392505050565b60006138d3826137c3565b9150819050919050565b60006020820190506138f2600083018461334d565b92915050565b600060808201905061390d600083018761334d565b61391a602083018661334d565b6139276040830185613895565b818103606083015261393981846133c9565b905095945050505050565b6000604082019050613959600083018561334d565b6139666020830184613895565b9392505050565b60006020820190508181036000830152613987818461335c565b905092915050565b60006020820190506139a460008301846133ba565b92915050565b60006020820190506139bf6000830184613402565b92915050565b600060208201905081810360008301526139df8184613411565b905092915050565b60006020820190508181036000830152613a008161347b565b9050919050565b60006020820190508181036000830152613a208161349e565b9050919050565b60006020820190508181036000830152613a40816134c1565b9050919050565b60006020820190508181036000830152613a60816134e4565b9050919050565b60006020820190508181036000830152613a8081613507565b9050919050565b60006020820190508181036000830152613aa08161352a565b9050919050565b60006020820190508181036000830152613ac08161354d565b9050919050565b60006020820190508181036000830152613ae081613570565b9050919050565b60006020820190508181036000830152613b0081613593565b9050919050565b60006020820190508181036000830152613b20816135b6565b9050919050565b60006020820190508181036000830152613b40816135d9565b9050919050565b60006020820190508181036000830152613b60816135fc565b9050919050565b60006020820190508181036000830152613b808161361f565b9050919050565b60006020820190508181036000830152613ba081613642565b9050919050565b60006020820190508181036000830152613bc081613665565b9050919050565b60006020820190508181036000830152613be081613688565b9050919050565b60006020820190508181036000830152613c00816136ab565b9050919050565b60006020820190508181036000830152613c20816136ce565b9050919050565b60006020820190508181036000830152613c40816136f1565b9050919050565b60006020820190508181036000830152613c6081613714565b9050919050565b60006020820190508181036000830152613c8081613737565b9050919050565b60006020820190508181036000830152613ca08161375a565b9050919050565b60006020820190508181036000830152613cc08161377d565b9050919050565b60006020820190508181036000830152613ce0816137a0565b9050919050565b60006020820190508181036000830152613d00816137e6565b9050919050565b60006020820190508181036000830152613d2081613809565b9050919050565b60006020820190508181036000830152613d408161382c565b9050919050565b60006020820190508181036000830152613d608161384f565b9050919050565b60006020820190508181036000830152613d8081613872565b9050919050565b6000602082019050613d9c6000830184613895565b92915050565b6000613dac613dbd565b9050613db882826140d2565b919050565b6000604051905090565b600067ffffffffffffffff821115613de257613de1614239565b5b613deb82614268565b9050602081019050919050565b600067ffffffffffffffff821115613e1357613e12614239565b5b613e1c82614268565b9050602081019050919050565b6000819050602082019050919050565b600081519050919050565b600081519050919050565b600081519050919050565b6000602082019050919050565b600082825260208201905092915050565b600082825260208201905092915050565b600081905092915050565b600082825260208201905092915050565b600081905092915050565b6000613ebb82614042565b9150613ec683614042565b9250827fffffffffffffffffffffffffffffffffffffffffffffffffffffffffffffffff03821115613efb57613efa61417d565b5b828201905092915050565b6000613f1182614042565b9150613f1c83614042565b925082613f2c57613f2b6141ac565b5b828204905092915050565b6000613f4282614042565b9150613f4d83614042565b9250817fffffffffffffffffffffffffffffffffffffffffffffffffffffffffffffffff0483118215151615613f8657613f8561417d565b5b828202905092915050565b6000613f9c82614042565b9150613fa783614042565b925082821015613fba57613fb961417d565b5b828203905092915050565b6000613fd082614022565b9050919050565b60008115159050919050565b60007fffffffff0000000000000000000000000000000000000000000000000000000082169050919050565b600081905061401d826149a7565b919050565b600073ffffffffffffffffffffffffffffffffffffffff82169050919050565b6000819050919050565b60006140578261400f565b9050919050565b82818337600083830152505050565b60005b8381101561408b578082015181840152602081019050614070565b8381111561409a576000848401525b50505050565b600060028204905060018216806140b857607f821691505b602082108114156140cc576140cb61420a565b5b50919050565b6140db82614268565b810181811067ffffffffffffffff821117156140fa576140f9614239565b5b80604052505050565b600061410e82614042565b91507fffffffffffffffffffffffffffffffffffffffffffffffffffffffffffffffff8214156141415761414061417d565b5b600182019050919050565b600061415782614042565b915061416283614042565b925082614172576141716141ac565b5b828206905092915050565b7f4e487b7100000000000000000000000000000000000000000000000000000000600052601160045260246000fd5b7f4e487b7100000000000000000000000000000000000000000000000000000000600052601260045260246000fd5b7f4e487b7100000000000000000000000000000000000000000000000000000000600052602160045260246000fd5b7f4e487b7100000000000000000000000000000000000000000000000000000000600052602260045260246000fd5b7f4e487b7100000000000000000000000000000000000000000000000000000000600052604160045260246000fd5b6000601f19601f8301169050919050565b7f4d696e74206973206e6f74206c69766500000000000000000000000000000000600082015250565b7f537570706c7920686173206265656e2072656163686564000000000000000000600082015250565b7f737570706c79206d7573742062652067726561746572207468616e207a65726f600082015250565b7f4552433732314d657461646174613a204e6f6e6578697374656e7420746f6b6560008201527f6e00000000000000000000000000000000000000000000000000000000000000602082015250565b7f4552433732313a207472616e7366657220746f206e6f6e20455243373231526560008201527f63656976657220696d706c656d656e7465720000000000000000000000000000602082015250565b7f4f776e61626c653a206e6577206f776e657220697320746865207a65726f206160008201527f6464726573730000000000000000000000000000000000000000000000000000602082015250565b7f4552433732313a20746f6b656e20616c7265616479206d696e74656400000000600082015250565b7f4d696e74207072696365206d7573742062652067726561746572207468616e2060008201527f7a65726f00000000000000000000000000000000000000000000000000000000602082015250565b7f4552433732313a207472616e7366657220746f20746865207a65726f2061646460008201527f7265737300000000000000000000000000000000000000000000000000000000602082015250565b7f4552433732313a20617070726f766520746f2063616c6c657200000000000000600082015250565b7f496e73756666696369656e742062616c616e6365000000000000000000000000600082015250565b7f7472616465206665652070657263656e74206d7573742062652067726561746560008201527f72207468616e207a65726f000000000000000000000000000000000000000000602082015250565b7f416464726573733a20756e61626c6520746f2073656e642076616c75652c207260008201527f6563697069656e74206d61792068617665207265766572746564000000000000602082015250565b7f416464726573733a20696e73756666696369656e742062616c616e6365000000600082015250565b7f4552433732313a206f70657261746f7220717565727920666f72206e6f6e657860008201527f697374656e7420746f6b656e0000000000000000000000000000000000000000602082015250565b7f4552433732313a20617070726f76652063616c6c6572206973206e6f74206f7760008201527f6e6572206e6f7220617070726f76656420666f7220616c6c0000000000000000602082015250565b7f4552433732313a2062616c616e636520717565727920666f7220746865207a6560008201527f726f206164647265737300000000000000000000000000000000000000000000602082015250565b7f4552433732313a206f776e657220717565727920666f72206e6f6e657869737460008201527f656e7420746f6b656e0000000000000000000000000000000000000000000000602082015250565b7f4552433732313a206d696e7420746f20746865207a65726f2061646472657373600082015250565b7f4552433732313a20617070726f76656420717565727920666f72206e6f6e657860008201527f697374656e7420746f6b656e0000000000000000000000000000000000000000602082015250565b7f4f776e61626c653a2063616c6c6572206973206e6f7420746865206f776e6572600082015250565b7f746f6b656e4964207072696365206d757374206265206772656174657220746860008201527f616e207a65726f00000000000000000000000000000000000000000000000000602082015250565b7f4552433732313a207472616e73666572206f6620746f6b656e2074686174206960008201527f73206e6f74206f776e0000000000000000000000000000000000000000000000602082015250565b7f4552433732313a20617070726f76616c20746f2063757272656e74206f776e6560008201527f7200000000000000000000000000000000000000000000000000000000000000602082015250565b50565b7f4552433732313a207472616e736665722063616c6c6572206973206e6f74206f60008201527f776e6572206e6f7220617070726f766564000000000000000000000000000000602082015250565b7f4e65656420746f2073656e64206d6f7265204554482e00000000000000000000600082015250565b7f746f6b656e4964206d7573742062652067726561746572207468616e207a657260008201527f6f00000000000000000000000000000000000000000000000000000000000000602082015250565b7f41646472657373206d696e746564000000000000000000000000000000000000600082015250565b7f5265656e7472616e637947756172643a207265656e7472616e742063616c6c00600082015250565b600381106149b8576149b76141db565b5b50565b6149c481613fc5565b81146149cf57600080fd5b50565b6149db81613fd7565b81146149e657600080fd5b50565b6149f281613fe3565b81146149fd57600080fd5b50565b60038110614a0d57600080fd5b50565b614a1981614042565b8114614a2457600080fd5b5056fea2646970667358221220564c12e46c31fe5e3e880828113f65b78dd1ca3377b63ae0262f7bff91e8e7cb64736f6c63430008040033",
  "linkReferences": {},
  "deployedLinkReferences": {}
}